:020000040800F2
:1000000058170020210200086F1A00088715000801
:100010006D1A00088B030008731F00080000000021
:10002000000000000000000000000000890100083E
:100030008D03000800000000CD010008C11C00086D
:100040003B0200083B0200083B0200083B0200089C
:100050003B0200083B0200083B0200083B0200088C
:100060003B0200083B0200083B0200083B0200087C
:100070003B0200083B0200083B0200083B0200086C
:100080003B0200083B0200083B0200083B0200085C
:100090003B0200083B0200083B0200083B0200084C
:1000A0003B0200084D1D00083B0200083B0200080F
:1000B0003B0200083B0200083B0200083B0200082C
:1000C0003B0200083B0200083B0200083B0200081C
:1000D0003B0200083B0200083B0200083B0200080C
:1000E0003B0200083B0200083B02000800F002F857
:1000F00000F03AF80AA090E8000C82448344AAF188
:100100000107DA4501D100F02FF8AFF2090EBAE885
:100110000F0013F0010F18BFFB1A43F0010318473B
:10012000282F0000482F0000103A24BF78C878C15B
:10013000FAD8520724BF30C830C144BF04680C60ED
:10014000704700000023002400250026103A28BF35
:1001500078C1FBD8520728BF30C148BF0B60704739
:100160001FB51FBD10B510BD00F0D6F81146FFF742
:10017000F7FF01F00FFF00F0F4F803B4FFF7F2FF10
:1001800003BC00F0FBF80000224B19680868B0E8D7
:10019000F00F80F30988BFF36F8F4FF0000080F3FA
:1001A00011884EF00D0E70470000000006480068F0
:1001B000006880F3088862B661B6BFF34F8FBFF363
:1001C0006F8F00DF00BF00BF08ED00E0EFF3098094
:1001D000BFF36F8F0F4B1A6820E9F00F106008B55E
:1001E0004FF0500080F31188BFF34F8FBFF36F8F34
:1001F00002F068FA4FF0000080F31188BDE8084073
:1002000019680868B0E8F00F80F30988BFF36F8FB2
:10021000704700BF14000020EFF305807047000016
:100220000948804709480047FEE7FEE7FEE7FEE78A
:10023000FEE7FEE7FEE7FEE7FEE7FEE704480549C6
:10024000054A064B704700004B1D0008ED000008F2
:100250005811002058170020581300205813002070
:1002600010B5203AC0F00B80B1E81850203AA0E851
:100270001850B1E81850A0E81850BFF4F5AF5FEA85
:10028000027C24BFB1E81850A0E8185044BF18C938
:1002900018C0BDE810405FEA827C24BF51F8043BDF
:1002A00040F8043B08BF7047D20728BF31F8023B33
:1002B00048BF11F8012B28BF20F8023B48BF00F8C7
:1002C000012B70474FF0000200B513469446964646
:1002D000203922BFA0E80C50A0E80C50B1F1200159
:1002E000BFF4F7AF090728BFA0E80C5048BF0CC007
:1002F0005DF804EB890028BF40F8042B08BF704765
:1003000048BF20F8022B11F0804F18BF00F8012BD6
:100310007047704770477047754600F02BF8AE463F
:1003200005006946534620F00700854618B020B501
:10033000FFF784FFBDE820404FF000064FF00007B4
:100340004FF000084FF0000B21F00701AC46ACE87D
:10035000C009ACE8C009ACE8C009ACE8C0098D46EA
:10036000704710B50446AFF300802046BDE810404A
:10037000FFF703BF00487047F41000200149182020
:10038000ABBEFEE7260002007047FEE7704772B67C
:10039000FEE700002DE9F84FDFF8B8910024A9F13D
:1003A000040B23460F2709F1040AABF1040EC9E040
:1003B0000125A5402A40AA427DD1674ED1F804C04C
:1003C000ACEB0608B44532D014DCBCF1030F3AD0D4
:1003D00009DCBCF1000F2AD0BCF1010F1CD0BCF12C
:1003E000020F31D11DE0BCF1110F17D0BCF1120F7B
:1003F0002AD119E0B8F5881F19D006DCB8F5803F7E
:1004000015D0B8F5801F1FD111E0B8F5001F0ED030
:10041000B8F5041F18D10AE0CB6815E0CB681B1DA6
:1004200012E0CB6808330FE0CB680C330CE08B682C
:100430002BB1012B4FF0080303D0456104E00423E6
:1004400002E0056100E00023FF2A01D8064601E032
:1004500000F104064FEA840501D9A5F12005D6F87C
:10046000008007FA05FC28EA0C0803FA05F548EABB
:100470000508C6F800804D68ED0062D5374DAE69BD
:1004800046F00106AE61AD6924F0030605F00105F2
:100490000095334D06EB050CDCF80850A607360F27
:1004A00007FA06F825EA0805DFF8B880404503D1C9
:1004B0004FF0000817E044E0DFF8AC80404502D17F
:1004C0004FF001080FE0DFF8A480404502D14FF063
:1004D000020808E0DFF89880404502D14FF0030899
:1004E00001E04FF0040808FA06F848EA0508CCF8DD
:1004F00008804D68D9F80060ED024D4601D51643DD
:1005000000E096432E604D68DAF80060AD02554673
:1005100001D5164300E096432E604D68DBF800607D
:10052000AD035D4601D5164300E096432E604D684D
:10053000DEF80060ED03754601D5164300E09643F2
:100540002E60641C0D682A46E5407FF431AFBDE89B
:10055000F88F000008040140000011100010024054
:100560000000014000080140000C01400010014063
:10057000001401400AB1016170470904FBE7000063
:1005800001488068704700000400002070B5040036
:1005900025D094F83D00002520B984F83C50204631
:1005A00000F04EF9242084F83D002068016821F015
:1005B000010101602068016841F400410160206888
:1005C000016821F40041016000F0ECFA4D4A6168D5
:1005D000914201D84C4900E04C49884201D20120A7
:1005E00070BD4B492368B0FBF1F15E6826F03F0611
:1005F0000E435E606368934206D94FF49673594385
:100600004FF47A73B1FBF3F12368491C1E6A26F09C
:100610003F06314319626168914210D84900401E7B
:10062000B0FBF1F2521CC2F30B02042A01D20420E7
:1006300022E0B0FBF1F0401CC0F30B001CE0A2680C
:10064000F2B301EBC10303EB0116431EB3FBF6F358
:100650005B1C43F480431B0549D092B301EBC102FC
:1006600002EB0111401EB0FBF1F0401CC0F30B0087
:1006700040F4804040F400402168CA694CF6FF73A2
:100680009A431043C861D4E9071001432068026807
:1006900022F0C00211430160D4E903010143206844
:1006A000826848F2FF339A4311438160D4E905011F
:1006B00008432168CA6822F0FF021043C86001E0C5
:1006C0000EE016E02068016841F001010160256438
:1006D000202084F83D00256384F83E50002070BD42
:1006E00001EB4106431EB3FBF6F35B1CB3E70120AD
:1006F000C2E701EB4101401EB0FBF1F0401CC0F32A
:100700000B00B7E7A086010080841E0000093D00B1
:1007100040420F002DE9F84F1F4690468A46044696
:10072000DDF82890FFF72CFF054694F83D002028BF
:100730007FD11923012240492046009500F0B6FFE1
:10074000002876D194F83C00012872D0012084F86A
:100750003C0020680168C90703D1016841F001012C
:1007600001602068016821F400610160212084F8A3
:100770003D00102084F83E0000262664C4F8248042
:100780006785608D20852D48E0622B464A4651469C
:10079000204600F011FF90B92068416980690090FF
:1007A00036E02A464946204601F026F850B1206C32
:1007B000042804D12068016841F40071016001201F
:1007C000BDE8F88F606A216800780861606A401CA3
:1007D0006062618D491E6185218D491E89B2218526
:1007E00022685369DB435B070BD451B10078106179
:1007F000606A401C6062608D401E6085208D401ED6
:1008000020852A464946204600F024FF0028CED104
:10081000208D0028C5D154F83D0B016841F40071CA
:100820000160202004F81E09E67766770020C7E7FC
:10083000FFE70220C4E70000020010000000FFFFF5
:1008400010B586B0002100910191029103910068DA
:100850001349884222D1134CA06940F00800A061DE
:10086000A069694600F0080004904FF440700090C1
:1008700012200190032003900B48FFF78BFD0B48DB
:10088000416841F0E06141F002014160E06940F4FB
:100890000010E061E06900F40010049006B010BDA3
:1008A0000054004000100240000C014000000140D4
:1008B000024881680278114481607047040000207A
:1008C000074810B5016841F010010160032000F0F5
:1008D000A1F80F2000F006F800F04AF8002010BD43
:1008E0000020024030B505461C4887B0816941F4BC
:1008F00000618161806906A900F40060009001A890
:1009000000F030F900F05EF91549164AB0FBF1F13C
:100910001548491E0260416040F2E7320021C0E9FB
:1009200003218160816100F0DBFB040012D10E48DD
:1009300000F016FC04000DD1192000F03DF8102D38
:1009400007D200222946192000F044F80748056024
:1009500000E0012407B0204630BD00000010024036
:1009600040420F00002C0140BC0300200800002082
:100970000F4808B5816941F001018161816901F089
:1009800001010091C16941F08051C161C06900223B
:1009900000F0805000900F21901E00F01BF80548D9
:1009A000416821F0E06141F00071416008BD000044
:1009B0000010024000000140002809DB00F01F0287
:1009C000012191404009800000F1E020C0F80011B1
:1009D00070470000F0B40E4B1B680C46C3F30223B3
:1009E000C3F10705042D00D90425191D072901D2DB
:1009F000002300E0DB1E012606FA05F1491E214016
:100A000099409E40761E16403143F0BC01F0B2BAC8
:100A10000CED00E0064900F0070208684FF6FF03FE
:100A2000184040EA0220034A104308607047000063
:100A30000CED00E00000FA052DE9F0470F46050037
:100A400061D0434E306800F00700B84209D23068E8
:100A500020F0070038433060306800F00700B842EB
:100A600051D128683B4C810712D5400703D56068F7
:100A700040F4E06060602878000703D5606840F4C7
:100A8000605060606068A96820F0F0000843606012
:100A90002878C00728D06868012810D0216802286B
:100AA00010D0890700292EDA616821F00301014383
:100AB0006160FFF765FD804641F288390DE02168ED
:100AC0008903EFE78901EDE7FFF75AFDA0EB080185
:100AD000494502D90320BDE8F0876068696800F0E5
:100AE0000C00B0EB810FEFD1306800F00700B84286
:100AF0000BD9306820F0070038433060306800F0D0
:100B00000700B84201D00120E5E72878400705D565
:100B10006068E96820F4E0600843606028780007B6
:100B200006D56068296920F4605040EAC100606021
:100B300000F058F86168084AC1F30311515CC840DD
:100B40000649086006480068FFF7CCFE0020C2E7AF
:100B50000020024000100240322A0008100000204D
:100B6000080000200F2202600C4A536803F00303C0
:100B70004360536803F0F0038360536803F4E06359
:100B8000C36052684FF4E06303EAD2020261044892
:100B9000006800F007000860704700000010024085
:100BA000002002400448054900684968044AC1F32E
:100BB0000221515CC8407047100000200010024024
:100BC000422A00080448054900684968044AC1F3FC
:100BD000C221515CC8407047100000200010024044
:100BE000422A00080E4A51680E4801F00C03042BFB
:100BF00011D0082B0FD10C48C1F38343C903C05C4B
:100C00000AD55168084AC1F34041921E515C054A19
:100C10005043B0FBF1F0704704494843704700006F
:100C20000010024000127A00222A000800093D004C
:100C30002DE9F84F040070D02078C04DC00749D08E
:100C40006868C0F38100012807D06868C0F381009C
:100C5000022809D16868C00306D52868800339D501
:100C600060680028E7D035E06068B0F5803F0BD0C1
:100C700010B1B0F5A02F11D0286820F48030286082
:100C8000286820F4802002E0286840F48030286042
:100C9000606890B1FFF774FC06460AE0286840F4EB
:100CA00080202860F0E700BFFFF76AFC801B642803
:100CB00073D828688003F7D50CE0FFF761FC06467F
:100CC00005E000BFFFF75CFC801B6428F0D82868B3
:100CD0008003F7D420789A4E80074FF001094FF037
:100CE000000839D5686810F00C0F07D06868C0F3A9
:100CF0008100022809D16868C00306D428688007EB
:100D000014D52069012808D110E02069B0B1C6F8D7
:100D10000090FFF735FC074605E00AE1FFF730FCDD
:100D2000C01B0228C4D828688007F7D528686169E5
:100D300020F0F80040EAC10028600DE0C6F800800D
:100D4000FFF71EFC074604E0FFF71AFCC01B022851
:100D500023D828688007F7D4207800072CD5794855
:100D6000A169D9B1C0F80090FFF70AFC074604E07A
:100D7000FFF706FCC01B02280FD8686A8007F7D56A
:100D800071484FF4FA510068B0FBF1F0009000BFD9
:100D90000098411E0091FAD20EE080E0C0F8008079
:100DA000FFF7EEFB074604E0FFF7EAFBC01B022853
:100DB00075D8686A8007F7D42078400760D5E8695D
:100DC0000027C00008D4E86940F08050E861E86975
:100DD000012700F0805000905C480168C90513D4D9
:100DE0000168834641F480710160FFF7C9FB8246C8
:100DF00006E000BFFFF7C4FBA0EB0A0064284ED852
:100E0000DBF80000C005F5D5E06801280AD008B17C
:100E1000052813D0286A20F001002862286A20F0F3
:100E2000040002E0286A40F001002862E06841F214
:100E3000883B98B1FFF7A4FB82460BE0286A40F09C
:100E400004002862EEE700BFFFF79AFBA0EB0A015F
:100E500059455AD8286A8007F6D50CE0FFF790FB71
:100E6000824605E0FFF78CFBA0EB0A0159454CD800
:100E7000286A8007F6D41FB1E86920F08050E86145
:100E8000E06988B36968C1F38101022944D002286E
:100E9000C6F8608004D0FFF773FB044638E034E006
:100EA000FFF76EFB074604E0FFF76AFBC01B022852
:100EB0002BD828688001F7D4206AB0F5803F05D18F
:100EC0006868A16820F4003008436860D4E908012C
:100ED0000843696821F4741108436860C6F860909B
:100EE000FFF74EFB044606E025E000BFFFF748FB96
:100EF000001B022809D828688001F7D51BE000BF35
:100F0000FFF73EFB001B022802D90320BDE8F88F43
:100F100028688001F4D40EE00128F7D06868226ABE
:100F200000F48031914204D1616A00F4701088426B
:100F300001D00120EAE70020E8E7000000100240AD
:100F40000000424280044242100000200070004035
:100F500070B5040009D0606A002540B12561656163
:100F6000A56294F8510040B10CE0012070BD6068AA
:100F7000B0F5827FF4D0E561F2E784F85050204666
:100F800000F040F8022084F851002068016821F048
:100F900040010160A088218900F4827001F40441BD
:100FA0000843A18901F400610843217C01F002019A
:100FB0000843217D01F001010843218B01F40071F8
:100FC0000843217F01F03801084394F8201001F014
:100FD00080010843218D01F4005108432168086015
:100FE000A069042101EA1040216848602068C169B5
:100FF00021F40061C1616565012084F85100002081
:1010000070BD000030B585B00024009401940294B6
:10101000039400681449884223D11448816941F43B
:1010200080518161816901F480510491816941F0AD
:101030000401816180690E4D00F004000490A0203D
:101040000090022001900320039069462846FFF794
:10105000A1F94020CDE90004694628460294FFF733
:1010600099F905B030BD0000003001400010024089
:10107000000801407047704770B590F83C20012A85
:1010800026D0012480F83C40022280F83D200368ED
:101090005A689D6822F070060A6832435A600D4B08
:1010A00002689A4208D0B2F1804F05D00A4B9A42AA
:1010B00002D00A4B9A4204D1496825F080031943B3
:1010C000916080F83D40002180F83C10084670BDDA
:1010D000022070BD002C01400004004000080040C8
:1010E00010B5040003D094F83D0010B107E00120D2
:1010F00010BD002084F83C00204600F01FF80220BC
:1011000084F83D00211D206800F026FE012084F8AF
:10111000460084F83E0084F83F0084F8400084F8DC
:10112000410084F8420084F8430084F8440084F8C5
:10113000450084F83D00002010BD000008B500689F
:10114000B0F1804F08D10548C16941F00101C1618A
:10115000C06900F00100009008BD000000100240CE
:1011600090F83D10012901D001207047022180F83C
:101170003D100168CA6842F00102CA6000680B496C
:10118000884208D0B0F1804F05D00949884202D08A
:101190000849884204D1816801F00701062903D07B
:1011A000016841F00101016000207047002C0140FE
:1011B000000400400008004070B5044690F83C0070
:1011C0000025012817D0012684F83C60022084F80D
:1011D0003D002068826822F0770222F47F4282601C
:1011E0000868502838D00DDC20284FD005DC90B39B
:1011F000102811D14AE0022070BD302846D0402886
:101200000AD13BE060282FD070280DD0B0F5805F68
:1012100003D0B0F5005F12D0012584F83D600020B6
:1012200084F83C00284670BDCB68D1E901212068D4
:1012300000F0C8FD2068816841F0770109E0CB68C3
:10124000D1E90121206800F0BDFD2068816841F4EA
:1012500080418160E1E719E0CA684968206800F0D0
:1012600065FE5021206806E0CA684968206800F0E1
:101270006EFE6021206800F0AFFDCEE7CA684968C5
:10128000206800F053FE40212068F4E72268014600
:101290001046F0E7704770B50446006801694FF0EA
:1012A0000005C943890715D4C168C943890711D40A
:1012B000E91E0161012020772068806980072046AF
:1012C00002D0FFF7E7FF04E000F0BCF8204600F092
:1012D0004EF9257720680169C943490717D4C168C9
:1012E000C943490713D46FF004010161022020773C
:1012F0002068806910F4407F204602D0FFF7CAFFC3
:1013000004E000F09FF8204600F031F925772068CE
:101310000169C943090716D4C168C943090712D432
:101320006FF008010161042020772068C069800700
:10133000204602D0FFF7AEFF04E000F083F820461D
:1013400000F015F9257720680169C943C90617D44B
:10135000C168C943C90613D46FF0100101610820A8
:1013600020772068C06910F4407F204602D0FFF744
:1013700091FF04E000F066F8204600F0F8F82577C9
:1013800020680169C943C90708D1C168C943C907B1
:1013900004D1891E0161204600F0EAF82068016945
:1013A000C943090609D4C168C943090605D46FF0C9
:1013B000800101612046FFF75DFE20680169C94395
:1013C000490609D4C168C943490605D46FF04001F4
:1013D0000161204600F0D6F820680169C9438906FA
:1013E0000BD4C168C943890607D46FF0200101619D
:1013F0002046BDE87040FFF73EBE70BD00B585B029
:10140000002100910191029103910068B0F1804F99
:1014100011D10A48816941F00401816180696946FE
:1014200000F004000490032000900220019003903B
:101430000348FEF7AFFF05B000BD000000100240FA
:1014400000080140704770B5044690F83C00002643
:101450000D4601280FD0012084F83C006AB1042A0F
:101460001DD0082A2FD00C2A3FD00126002084F856
:101470003C00304670BD022070BD206800F0B4FC16
:101480002068816941F0080181612068816921F04B
:1014900004018161206881692A69114311E0206893
:1014A00000F0CAFC2068816941F400618161206814
:1014B000816921F480618161206881692A6941EA3A
:1014C00002218161D2E7206800F0E2FC2068C16956
:1014D00041F00801C1612068C16921F00401C161C6
:1014E0002068C1692A69114311E0206800F0FCFC02
:1014F0002068C16941F40061C1612068C16921F4BB
:101500008061C1612068C1692A6941EA0221C16123
:10151000ACE710B5040003D094F83D0010B107E02B
:10152000012010BD002084F83C00204600F01EF889
:10153000022084F83D00211D206800F00DFC0120F0
:1015400084F8460084F83E0084F83F0084F84000A8
:1015500084F8410084F8420084F8430084F8440091
:1015600084F8450084F83D00002010BD70477047A6
:1015700000680349884201D1FFF79AB9704700001B
:10158000002C01407047FEE701684A69D2435205CA
:101590000FD46FF480624A61002140F8301F20228E
:1015A00042738173026942F00402026101730120F7
:1015B0007047002070470000F8B50446C06A1E4618
:1015C0000D461746082807D0012805D010F5803FA2
:1015D00002D0206B122804D12068016841F4807188
:1015E0000160134600224FF001112046009600F0E2
:1015F0005DF840B120680068C00502D54FF4007066
:1016000020640320F8BD2069B0F5804F0ED006207D
:10161000216800EAD51040F0F000086133463A46F0
:101620000B49204600F08AF878B902E005F0FE0088
:1016300000E0E8B221680861054933463A46891F4F
:10164000204600F07BF80028DCD00120F8BD000027
:101650000800010070B516460D4604461EE02046FF
:10166000FFF792FF08B1012070BD681C16D0FEF78D
:1016700087FF801BA84200D885B920684069C04315
:1016800040070BD5002044F8300F20216173A07370
:10169000216941F0200121612073E4E7206840695D
:1016A000C0434007DBD4002070BD00002DE9F047A7
:1016B000984617460D460446C1F30746DDF82090CC
:1016C0002AE000BFB8F1FF3F26D0FEF759FFA0EB9C
:1016D0000901414502D8B8F1000F1DD12068012E43
:1016E00016D0806925EA00000004000C12D000200A
:1016F000B84211D1002044F8300F20216173A0734B
:10170000216941F02001216120730120BDE8F087AB
:101710004069E7E70120EBE72068012E0AD08069E5
:1017200025EA00000004000C06D00020B842C9D011
:101730000020EBE74069F3E70120F7E72DE9F047E8
:10174000984616460D4604464FF000094FF0200A11
:10175000C1F3074723E020684069C043400515D422
:101760002068016841F40071016021686FF48060B5
:101770004861C4F8309084F83DA084F83E90216C14
:1017800041F00401216484F83C9021E0701C06D0F3
:10179000FEF7F6FEA0EB0800B04203D816B1012F09
:1017A0001FD021E02068012F15D0806925EA0000B4
:1017B0000004000C18D000BF44F8309F84F80DA03E
:1017C00084F80E90216941F02001216184F80C9089
:1017D0000120BDE8F087406925EA00000004000C04
:1017E000EAD12068406901E02068806925EA0000AC
:1017F0000004000CAFD1ECE770B516460D46044668
:101800001EE02046FFF7C0FE08B1012070BD681C35
:1018100016D0FEF7B5FE801BA84200D885B9206817
:101820004069C04300060BD5002044F8300F20214A
:101830006173A073216941F0200121612073E4E705
:1018400020684069C0430006DBD4002070BD000062
:1018500000B587B01C2206496846FEF701FD00214D
:10186000684600F0BCFB0349086007B000BD0000FB
:10187000042A0008000000202DE9F04385B0002470
:101880002B480094019402940394816941F0100163
:101890008161816901F010010491816941F02001A9
:1018A0008161816901F020010491816941F00401A5
:1018B0008161816901F004010491816941F00801AD
:1018C00081618069DFF86C8000F0080004900022DC
:1018D00003214046FEF74EFEDFF85C904FF41047C0
:1018E000012239464846FEF745FE012208214046BE
:1018F000FEF740FE0B2001250326CDE90005CDE9CA
:10190000024669464046FEF745FD4FF470608DE89B
:10191000310069464846FEF73DFD00970396CDE944
:10192000015469464846FEF735FD05B0BDE8F08331
:1019300000100240000C0140000801400D4810B5A5
:101940000B4901600C49416000214FF480428160E5
:10195000C0E9031241618161C1610162FEF716FEB7
:10196000002803D0BDE81040FEF711BD10BD0000F7
:1019700000540040C8020020A0860100104810B5A5
:101980000E4901604FF48271416000218160C160A5
:101990004FF400720161C0E905120822C0E9072175
:1019A000416281620A21C162FFF7D2FA002803D0A6
:1019B000BDE81040FEF7EBBC10BD00000030014058
:1019C0001C03002010B58EB00024079408940994DD
:1019D0000A940B941C2168460C94FEF773FC224871
:1019E0004FF08041016041F61F41C0E901146321BD
:1019F000C0E903148461FFF773FB08B1FEF7C7FC6D
:101A00004FF48050079007A91748FFF7D5FB08B19E
:101A1000FEF7BDFC1448FFF77CFD08B1FEF7B7FCEC
:101A20000B940BA910480C94FFF726FB08B1FEF7A6
:101A3000AEFC6020CDE900040294002269460A4809
:101A40000494FFF700FD08B1FEF7A1FC04226946EB
:101A50000548FFF7F8FC08B1FEF799FC0248FFF7CC
:101A6000CDFC0EB010BD000074030020FEE7FEE7C1
:101A700070B500240021204600F06AF800250020FF
:101A800000F0F2F86D1CEDB2802DF8D3641CE4B2C6
:101A9000082CEFD370BD10B500204FF47A720021EE
:101AA000491C9142FCD3401C9042F8D3FFF746FFFB
:101AB000AE2000F0C7F8D52000F0C4F8802000F078
:101AC000C1F8A82000F0BEF83F2000F0BBF8D320FA
:101AD00000F0B8F8002000F0B5F8402000F0B2F8AF
:101AE000A12000F0AFF8C82000F0ACF8DA2000F038
:101AF000A9F8122000F0A6F8812000F0A3F8CF206A
:101B000000F0A0F8D92000F09DF8F12000F09AF83C
:101B1000DB2000F097F8302000F094F8A42000F0CB
:101B200091F8A62000F08EF88D2000F08BF814209C
:101B300000F088F8AF2000F085F8BDE81040FFF70E
:101B400097BF0246012000E05043491EFCD2704777
:101B500010B50C4640F0B00000F074F8102040EAD8
:101B6000141000F06FF804F00F00BDE8104000F012
:101B700069B800002DE9F0410746CE004000083E5C
:101B8000801E15464FF0FF38F1B2C0B2FFF7E0FFFC
:101B90001148002400EB05152819A0F5805090F895
:101BA000000E00F061F8641CE4B2082CF4D308EBDA
:101BB0004700F1B2C0B2FFF7CBFF00242819A0F50F
:101BC000805090F8080E00F04FF8641CE4B2082C26
:101BD000F4D3BDE8F08100004A2A00082DE9F0475F
:101BE00000241D461646884681460A2713E0291B15
:101BF0000A20491EFFF7A5FFB6FBF0F0B0FBF7F196
:101C000007FB110208EB0400C1B248463032FFF76F
:101C1000B1FF641CE4B2AC42E9D3BDE8F0872DE922
:101C2000F04115460E460746002406E03019C1B2C1
:101C30003846FFF79FFF641CE4B22A5D002AF5D105
:101C4000BDE8F0811CB500218DF804108DF8050069
:101C5000481E0090022301AA78210248FEF75AFD8F
:101C60001CBD0000C80200201CB540218DF80410E6
:101C70008DF805004FF0FF300090022301AA782173
:101C80000148FEF747FD1CBDC802002000244FF4A8
:101C9000FA75012107A20846FFF7C1FF2246641C1E
:101CA000032301210220FFF799FF284600F08BF95A
:101CB000EFE7000068656C6C6F20776F726C6400F2
:101CC00010B5502080F31188BFF34F8FBFF36F8F93
:101CD00000F0D2FD18B104494FF080500860002098
:101CE00080F3118810BD000004ED00E030B58FB026
:101CF00028216846FEF7E6FA14210AA8FEF7E2FA60
:101D000001210804CDE90010002402940225049169
:101D1000CDE907504FF4E01009906846FEF788FFC0
:101D200008B172B6FEE70F20CDE90A054FF48060D6
:101D3000CDE90C4002210AA80E94FEF77DFE002892
:101D400001D072B6FEE70FB030BD70470148FFF713
:101D5000A2BA0000BC030020F0B50268164B174C75
:101D6000174D4FF08047984205D0B84203D0A042AB
:101D700001D0A84203D122F070064A68324398424B
:101D800005D0B84203D0A04201D0A84203D122F42A
:101D90004074CA6822434C6922F0800222430260E8
:101DA0008A68C2620A688262984201D10969016345
:101DB00001214161F0BD0000002C01400004004001
:101DC0000008004010B5846842EA032224F47F44EE
:101DD0000A432243826010BD826822F070020A43E7
:101DE00042F007018160704730B5036A026A22F051
:101DF000010202624268846924F073050C682C4376
:101E000023F002058B682B430A4DA8420BD123F027
:101E10000805CB6822F440722B434D6923F004037C
:101E200015438A692A4342608461496841630362B9
:101E300030BD0000002C014030B5026A036A23F077
:101E400010030362436884690D6824F4E64444EA9D
:101E500005248D6822F0200242EA05120B4DA842AB
:101E60000ED1CD6822F0800242EA05124D6923F4BA
:101E7000406343EA85038D6922F0400243EA85030B
:101E80004360846149688163026230BD002C014077
:101E900030B5036A026A22F4807202624268C46941
:101EA00023F4007324F073050C682C438D6843EA17
:101EB00005230C4DA8420ED1CD6823F4006343EAFC
:101EC00005234D6922F4405242EA05128D6923F43C
:101ED000806342EA05124260C4614968C1630362DB
:101EE00030BD0000002C014030B5046A026A22F4C3
:101EF000805202624268C3690D6823F4E64343EAF4
:101F000005238D6824F4005444EA0534064DA842A4
:101F100004D14D6922F4804242EA85124260C361D5
:101F200049680164046230BD002C014010B5036AA9
:101F3000046A24F001040462846924F0F00444EA91
:101F4000021423F00A020A438461026210BD10B534
:101F5000036A046A24F010040462846923F0A00375
:101F600024F4704444EA023243EA011182610162BE
:101F700010BDFEE70907090E002804DB00F1E02090
:101F800080F80014704700F00F0000F1E02080F8A6
:101F9000141D7047FEF794FCFFF7A8FEFFF76CFCDA
:101FA000FFF7CCFCFFF7EAFCFFF70CFDFFF773FD32
:101FB000FFF74EFC00F00EF8FEE7014600208429F2
:101FC00000D0C81C704710B500B9012000F016FB06
:101FD000002010BD10B500F037FB002010BD7FB50C
:101FE0000D4604464169B0F9080081B1A16971B19B
:101FF000FFF7E3FFD4E905128DE80700D4E90010EC
:102000002B46226900F00DFC039004B070BDFFF771
:10201000D4FF03A9CDE90001208A2B4682B2D4E97E
:10202000001000F0D1FB012801D00020EDE703985B
:10203000EBE700002DE9F041184C0F4605466669B4
:102040002068001D00F016FA38B9206890F82C10AE
:1020500001208840A1698143A161681C07D137B183
:102060002168BDE8F0410E48091D00F047BA20681C
:102070003544B5424560216805D2A068BDE8F0410D
:10208000091D00F023BA6068091D00F01FFA206BDB
:10209000854200D22563BDE8F081000014000020D5
:1020A000E00400202DE9F041054600F033FA2E4C03
:1020B0002069401C206120682C4F10B1E06940B3BA
:1020C0002DE025602069012829D1002606EB860035
:1020D00007EB800000F0ECF9761C072EF6D32348BE
:1020E0008C3000F0E5F92148A03000F0E1F91F48FC
:1020F000B43000F0DDF91D48C83000F0D9F91B48B4
:10210000DC3000F0D5F919488C3060601430A060E4
:1021100005E02068E96AC06A884200D82560E06A64
:10212000401CE062E96A0120A26988401043A06176
:1021300001EB810007EB8000291D00F0DFF900F0C2
:1021400009FAE06900280CD02068E96AC06A884270
:1021500007D207494FF080500860BFF34F8FBFF39D
:102160006F8FBDE8F08100001400002004040020FF
:1021700004ED00E010B5044690F8510058B1012874
:102180000CD002280FD0502080F31188BFF34F8F5E
:10219000BFF36F8FFEE7206B00F0F0F92046BDE83B
:1021A000104000F0EBB910BD10484FF440614207F9
:1021B00006D0C01D0D4920F00700411AC1F540614D
:1021C0000B4A00230144C2E900030839103A21F008
:1021D000070111604B600B600B1AC0E9001393609C
:1021E0004FF000405360D06070470000F4040020BE
:1021F00060000020144E154CA6F1C8074FF080581F
:10220000DFF84C9012E000BF00F084F9F068C56878
:10221000281D00F02FF92069401E2061E068401E53
:10222000E06000F097F92846FFF7A4FFE068002877
:10223000EAD138680128F9D9C9F80080BFF34F8F77
:10224000BFF36F8FF2E70000CC04002014000020E1
:1022500004ED00E02DE9F0479A46DDE90984814666
:102260006FF00303206B03EB82021044089D20F003
:102270000706700707D0502080F31188BFF34F8FF7
:10228000BFF36F8FFEE723180A5C83F834200A5CE3
:1022900012B1401C1028F6D3002784F84370072D94
:1022A00000D30625E562C4E91157201D00F00BF9A3
:1022B00004F1180000F007F92461C5F10700646219
:1022C000A061E76484F8507052464946304600F0F9
:1022D000BFF82060B8F1000F01D0C8F80040BDE899
:1022E000F087000030B5114900E011460A688242CB
:1022F000FBD34B685C18844203D1406818444860A3
:10230000084643681C18944209D1084C103C2468C4
:10231000A24209D052681A4442600A6812680260F8
:10232000814200D0086030BD0460F9E76000002001
:1023300006484168096829B14168C968C96849689F
:10234000016370474FF0FF31FAE7000014000020EE
:1023500008484068401C4FF0500080F3118804D0BA
:10236000BFF34F8FBFF36F8FFEE7BFF34F8FBFF306
:102370006F8FFEE7680000202DE9F0410546002739
:1023800000F098F9314E306808B9FFF70DFFF0689A
:1023900005424BD1C5B3083568070ED005F00700DC
:1023A000C0F108000544680707D0502080F3118869
:1023B000BFF34F8FBFF36F8FFEE72DB37068854279
:1023C00034D82248103001460C6801E020460C4603
:1023D0006168A94202D221680029F7D131688C4294
:1023E00024D007682168016060680837411B102904
:1023F0000FD96019420708D0502080F31188BFF32D
:102400004F8FBFF36F8FFEE710E041606560FFF70D
:1024100069FF61687068401A7060B268904200D2CB
:10242000B060F06801430020C4E9000100F088FAC0
:10243000780707D0502080F31188BFF34F8FBFF388
:102440006F8FFEE73846BDE8F081000050000020A5
:1024500010B5031F4FF080741C601B1F21F0010199
:102460001960191F024B0B60143940380A6010BD07
:1024700051230008D0E9013201699A60D0E90123B3
:102480005A604A68824201D182684A600022026131
:102490000868401E0860086870470000034B03602E
:1024A00003F1540008608020106070477400002021
:1024B00000F108014FF0FF32C0E90112C160016173
:1024C00000210160704700210161704730B50B6841
:1024D0005A1C02D000F1080202E0026904E0224620
:1024E000546825689D42FAD953684B6099608A60A8
:1024F000516008610168491C016030BD42684A6052
:1025000093688B6093685960916008610168491C09
:1025100001607047502080F31188BFF34F8FBFF3E5
:102520006F8F0A494868401C486001280CD1084850
:10253000006810F0FF0F07D0502080F31188BFF320
:102540004F8FBFF36F8FFEE77047000068000020D9
:1025500004ED00E00849486828B1401E486001D1F8
:1025600080F311887047502080F31188BFF34F8F9C
:10257000BFF36F8FFEE700006800002070B50028F1
:1025800027D0144DA0F108046168E868014207D122
:10259000502080F31188BFF34F8FBFF36F8FFEE79A
:1025A00022683AB1502080F31188BFF34F8FBFF3F8
:1025B0006F8FFEE78143616000F07CF860686968B6
:1025C000084468602046FFF78DFEBDE8704000F0CB
:1025D000B7B970BD500000204FF0E020002101612C
:1025E000816105494FF47A720968B1FBF2F1491E25
:1025F00041610721016170471000002010B5020001
:1026000014D00F48806B38B1502080F31188BFF38D
:102610004F8FBFF36F8FFEE700F04CF8002110469C
:10262000FFF708FD00F08CF9002807D105494FF0AD
:1026300080500860BFF34F8FBFF36F8F10BD000055
:102640001400002004ED00E010B586B000240394CF
:1026500005AA04A903A80494FFF720FFDDE90301FC
:102660000094CDE9011000230EA11048059A00F056
:10267000D8F80F490028486311D0502080F3118802
:10268000BFF34F8FBFF36F8F4FF0FF300863012010
:10269000C8614C6106B0BDE8104000F041B806B01A
:1026A00010BD000049444C4500000000F521000821
:1026B000140000200248816B491C816370470000B0
:1026C000140000201448816B11B101214162704750
:1026D000002141628169B1FA81F1C1F11F0101EB71
:1026E00081020E4951F822306BB101EB820101F1F8
:1026F00008034A6852684A609A4201D152684A60A7
:10270000D16801607047502080F31188BFF34F8F6C
:10271000BFF36F8FFEE700001400002004040020C8
:102720001CB5264908780190FF20087008788DF8BC
:1027300000009DF800009DF8002000F0F00090429D
:1027400007D0502080F31188BFF34F8FBFF36F8FF6
:10275000FEE79DF800001A4B00F0500018700720AB
:10276000986005E09DF8002052008DF80020401E82
:102770009DF800201206F5D49860032807D0502059
:1027800080F31188BFF34F8FBFF36F8FFEE74FF4D5
:1027900040709860019808700A48016841F470011F
:1027A0000160016841F070410160FFF715FF0020F2
:1027B0005860FDF7FBFC00201CBD000000E400E0B9
:1027C0006800002020ED00E02DE9FF5F8346DDE991
:1027D0000E87994616468A469000FFF7CDFD050004
:1027E0001CD05420FFF7C8FD040014D0002025633E
:1027F00084F85100CDE90240CDE900874B463246CE
:1028000051465846FFF726FD2046FFF74BFC0120B6
:1028100004B0BDE8F09F2846FFF7B0FE4FF0FF3050
:10282000F6E7F0B585B0DDE90B640A9DA6B1DCB131
:10283000542700972663022684F85160002604AFCF
:10284000CDE90246CDE90057FFF704FD2046FFF72A
:1028500029FC049805B0F0BD502080F31188BFF327
:102860004F8FBFF36F8FFEE7502080F31188BFF3C7
:102870004F8FBFF36F8FFEE72DE9F0412E4C0027FD
:10288000A06B40B1206A401C2062606A00B1012741
:102890003846BDE8F0816669761C666113D16068D0
:1028A000006838B1502080F31188BFF34F8FBFF319
:1028B0006F8FFEE76068A1686160A060A06A401C3D
:1028C000A062FFF735FD206BDFF87080864209D3E8
:1028D0006068006880B16068C068C56868688642E2
:1028E0000DD220632068C06A00EB800158F82100F7
:1028F0000128CAD90127C8E74FF0FF30F1E7281DAA
:10290000FFF7B8FDA86A18B105F11800FFF7B2FD8E
:10291000E86A0121A26981401143A16100EB8001B5
:1029200008EB8100291DFFF7E9FDE86A2168C96A03
:102930008842CDD30127CBE71400002004040020F7
:102940002DE9F0472C4D00242746A86B38B1FFF73E
:10295000E1FDA86B401EA863A86B40B146E0502083
:1029600080F31188BFF34F8FBFF36F8FFEE72969A4
:10297000224E0120D1B3A6F1B40980463068E8B1F7
:10298000F068C46804F11800FFF774FD201DFFF71C
:1029900071FDE06AAA6908FA00F11143A96100EB30
:1029A000800109EB8100211DFFF7A8FDE06A29687D
:1029B000C96A8842E2D3C5F82480DFE70CB1FFF78B
:1029C000B7FC2C6A44B14646FFF756FF00B16E6271
:1029D000641EF9D100202862686A38B108490127CD
:1029E00038070860BFF34F8FBFF36F8FFFF7B2FD5B
:1029F0003846BDE8F087000014000020B80400202D
:102A000004ED00E03C3000088D1C000800000000D0
:102A10000000000080000000000000000000000036
:102A2000010202030405060708090A0B0C0D0E0F2C
:102A3000101000000000000000000102030406075F
:102A4000080900000000010203040000000000006B
:102A500000000000000000000000000000F800007E
:102A60000000000000333000000000100C06100CC5
:102A70000600000000000000000040C07840C07860
:102A80004000043F04043F040400007088FC083048
:102A90000000001820FF211E0000F008F000E018E0
:102AA000000000211C031E211E0000F00888700099
:102AB00000001E2123241927211010160E000000EB
:102AC00000000000000000000000000000E018040A
:102AD0000200000000071820400000020418E00077
:102AE00000000040201807000000404080F08040B7
:102AF00040000202010F01020200000000F000008D
:102B000000000101011F01010100000000000000A0
:102B1000000080B070000000000000000000000015
:102B2000000000010101010101010000000000009E
:102B30000000003030000000000000000000806055
:102B40001804006018060100000000E010080810DA
:102B5000E000000F102020100F00001010F80000FF
:102B600000000020203F2020000000700808088896
:102B70007000003028242221300000300888884866
:102B800030000018202020110E000000C02010F896
:102B9000000000070424243F240000F80888880867
:102BA00008000019212020110E0000E0108888186C
:102BB0000000000F112020110E0000380808C8384E
:102BC00008000000003F000000000070880808882E
:102BD0007000001C222121221C0000E010080810B7
:102BE000E0000000312222110F00000000C0C000F0
:102BF00000000000003030000000000000800000F5
:102C000000000000806000000000000080402010F4
:102C100008000001020408102000404040404040ED
:102C20004000040404040404040000081020408050
:102C30000000002010080402010000704808080885
:102C4000F0000000003036010000C030C828E81055
:102C5000E0000718272423140B000000C038E00010
:102C60000000203C23020227382008F8888888705A
:102C70000000203F202020110E00C0300808080866
:102C80003800071820202010080008F8080808104D
:102C9000E000203F202020100F0008F88888E80876
:102CA0001000203F20202320180008F88888E8081A
:102CB0001000203F200003000000C0300808083842
:102CC000000007182020221E020008F80800000853
:102CD000F808203F210101213F20000808F80808DA
:102CE00000000020203F2020000000000808F80815
:102CF0000800C08080807F00000008F888C0281885
:102D00000800203F20012638200008F808000000B5
:102D10000000203F20202020300008F8F800F8F8BC
:102D20000800203F003F003F200008F830C00008A6
:102D3000F808203F200007183F00E010080808109E
:102D4000E0000F10202020100F0008F808080808E5
:102D5000F000203F210101010000E01008080810E8
:102D6000E0000F18242438504F0008F8888888881D
:102D70007000203F2000030C3020007088080808F5
:102D800038000038202121221C00180808F8080803
:102D900018000000203F2000000008F8080000088C
:102DA000F808001F202020201F000878880000C895
:102DB0003808000007380E010000F80800F8000885
:102DC000F800033C0700073C03000818688080688F
:102DD000180820302C03032C30200838C800C838CD
:102DE00008000000203F2000000010080808C83834
:102DF00008002038262120201800000000FE0202D2
:102E000002000000007F40404000000C30C0000085
:102E10000000000000010638C00000020202FE00AF
:102E20000000004040407F00000000000402020259
:102E3000040000000000000000000000000000008E
:102E4000000080808080808080800002020400007A
:102E50000000000000000000000000008080808072
:102E600000000019242222223F2008F80080800060
:102E70000000003F112020110E0000000080808023
:102E80000000000E1120202011000000008080882A
:102E9000F800000E112020103F200000808080806C
:102EA0000000001F222222221300008080F0888868
:102EB00088180020203F20200000000080808080B3
:102EC0008000006B94949493600008F800808080E8
:102ED0000000203F210000203F2000809898000043
:102EE00000000020203F2020000000000080989873
:102EF000000000C08080807F000008F80000808013
:102F00008000203F24022D302000000808F8000037
:102F100000000020203F20200000808080808080F2
:102F20008000203F20003F20003F80800080808084
:102F30000000203F210000203F2000008080808092
:102F40000000001F202020201F00808000808000C3
:102F5000000080FFA12020110E0000000080808072
:102F60008000000E112020A0FF80808080008080E3
:102F7000800020203F212000010000008080808010
:102F800080000033242424241900008080E0808005
:102F900000000000001F2020000080800000008052
:102FA0008000001F202020103F20808080000080B3
:102FB000808000010E3008060100808000800080C3
:102FC00080800F300C030C300F0000808000808068
:102FD00080000020312E0E31200080808000008093
:102FE000808080818E701806010000808080808043
:102FF00080000021302C2221300000000000807C65
:10300000020200000000003F404000000000FF00FE
:10301000000000000000FF0000000002027C8000B1
:1030200000000040403F00000000000601010202D5
:1030300004040000000000000000000064656661F8
:10304000756C745461736B006830000800000020D8
:103050007400000028010008DC3000087400002023
:10306000E416000044010008000000000100000018
:1030700010000000000000000024F4000000000028
:103080000000000000000000000000000000000040
:103090000000000000000000000000000000000030
:1030A0000000000000000000000000000000000020
:1030B0000000000000000000000000000000000010
:1030C0000000000000000000000000000000000000
:0C30D00000000000AAAAAAAA000000004C
:04000005080000ED02
:00000001FF
