:020000040800F2
:10000000D808002021020008331600083B1400081D
:100010003116000827030008E71800080000000058
:10002000000000000000000000000000890100083E
:100030004903000800000000CD0100083516000843
:100040003B0200083B0200083B0200083B0200089C
:100050003B0200083B0200083B0200083B0200088C
:100060003B0200083B0200083B0200083B0200087C
:100070003B0200083B0200083B0200083B0200086C
:100080003B0200083B0200083B0200083B0200085C
:100090003B0200083B0200083B0200083B0200084C
:1000A0003B020008C11600083B0200083B020008A2
:1000B0003B0200083B0200083B0200083B0200082C
:1000C0003B0200083B0200083B0200083B0200081C
:1000D0003B0200083B0200083B0200083B0200080C
:1000E0003B0200083B0200083B02000800F002F857
:1000F00000F03AF80AA090E8000C82448344AAF188
:100100000107DA4501D100F02FF8AFF2090EBAE885
:100110000F0013F0010F18BFFB1A43F0010318473B
:10012000D0190000F0190000103A24BF78C878C137
:10013000FAD8520724BF30C830C144BF04680C60ED
:10014000704700000023002400250026103A28BF35
:1001500078C1FBD8520728BF30C148BF0B60704739
:100160001FB51FBD10B510BD00F0A4F81146FFF774
:10017000F7FF01F0C9FB00F0C2F803B4FFF7F2FF8C
:1001800003BC00F0C9F80000224B19680868B0E809
:10019000F00F80F30988BFF36F8F4FF0000080F3FA
:1001A00011884EF00D0E70470000000006480068F0
:1001B000006880F3088862B661B6BFF34F8FBFF363
:1001C0006F8F00DF00BF00BF08ED00E0EFF3098094
:1001D000BFF36F8F0F4B1A6820E9F00F106008B55E
:1001E0004FF0500080F31188BFF34F8FBFF36F8F34
:1001F00001F0D6FB4FF0000080F31188BDE8084005
:1002000019680868B0E8F00F80F30988BFF36F8FB2
:10021000704700BF10000020EFF30580704700001A
:100220000948804709480047FEE7FEE7FEE7FEE78A
:10023000FEE7FEE7FEE7FEE7FEE7FEE704480549C6
:10024000054A064B70470000BF160008ED00000885
:10025000D8020020D8080020D8040020D8040020AC
:100260004FF0000200B5134694469646203922BF4F
:10027000A0E80C50A0E80C50B1F12001BFF4F7AF9A
:10028000090728BFA0E80C5048BF0CC05DF804EB7C
:10029000890028BF40F8042B08BF704748BF20F8EA
:1002A000022B11F0804F18BF00F8012B70477047E8
:1002B00070477047754600F02BF8AE46050069465A
:1002C000534620F00700854618B020B5FFF7B6FF6B
:1002D000BDE820404FF000064FF000074FF0000847
:1002E0004FF0000B21F00701AC46ACE8C009ACE8C8
:1002F000C009ACE8C009ACE8C0098D46704710B52C
:100300000446AFF300802046BDE81040FFF735BF3C
:10031000004870477802002001491820ABBEFEE774
:10032000260002007047FEE701220421014800F088
:1003300011B900000008014000220421014800F02A
:1003400009B9000000080140704772B6FEE70000DE
:1003500070B5044600F004F90546601C02D004485C
:100360000078044400F0FCF8401BA042FAD370BDB2
:10037000000000202DE9F84FDFF8B8910024A9F122
:10038000040B23460F2709F1040AABF1040EC9E060
:100390000125A5402A40AA427DD1674ED1F804C06C
:1003A000ACEB0608B44532D014DCBCF1030F3AD0F4
:1003B00009DCBCF1000F2AD0BCF1010F1CD0BCF14C
:1003C000020F31D11DE0BCF1110F17D0BCF1120F9B
:1003D0002AD119E0B8F5881F19D006DCB8F5803F9E
:1003E00015D0B8F5801F1FD111E0B8F5001F0ED051
:1003F000B8F5041F18D10AE0CB6815E0CB681B1DC7
:1004000012E0CB6808330FE0CB680C330CE08B684C
:100410002BB1012B4FF0080303D0456104E0042306
:1004200002E0056100E00023FF2A01D8064601E052
:1004300000F104064FEA840501D9A5F12005D6F89C
:10044000008007FA05FC28EA0C0803FA05F548EADB
:100450000508C6F800804D68ED0062D5374DAE69DD
:1004600046F00106AE61AD6924F0030605F0010512
:100470000095334D06EB050CDCF80850A607360F47
:1004800007FA06F825EA0805DFF8B880404503D1E9
:100490004FF0000817E044E0DFF8AC80404502D19F
:1004A0004FF001080FE0DFF8A480404502D14FF083
:1004B000020808E0DFF89880404502D14FF00308B9
:1004C00001E04FF0040808FA06F848EA0508CCF8FD
:1004D00008804D68D9F80060ED024D4601D51643FD
:1004E00000E096432E604D68DAF80060AD02554694
:1004F00001D5164300E096432E604D68DBF800609E
:10050000AD035D4601D5164300E096432E604D686D
:10051000DEF80060ED03754601D5164300E0964312
:100520002E60641C0D682A46E5407FF431AFBDE8BB
:10053000F88F000008040140000011100010024074
:100540000000014000080140000C01400010014083
:10055000001401400AB1016170470904FBE7000083
:1005600001488068704700000000002070B504005A
:1005700025D094F83D00002520B984F83C50204651
:1005800000F0B8F8242084F83D002068016821F0CC
:10059000010101602068016841F4004101602068A8
:1005A000016821F40041016000F056FA4D4A61688B
:1005B000914201D84C4900E04C49884201D20120C7
:1005C00070BD4B492368B0FBF1F15E6826F03F0631
:1005D0000E435E606368934206D94FF496735943A5
:1005E0004FF47A73B1FBF3F12368491C1E6A26F0BD
:1005F0003F06314319626168914210D84900401E9C
:10060000B0FBF1F2521CC2F30B02042A01D2042007
:1006100022E0B0FBF1F0401CC0F30B001CE0A2682C
:10062000F2B301EBC10303EB0116431EB3FBF6F378
:100630005B1C43F480431B0549D092B301EBC1021C
:1006400002EB0111401EB0FBF1F0401CC0F30B00A7
:1006500040F4804040F400402168CA694CF6FF73C2
:100660009A431043C861D4E9071001432068026827
:1006700022F0C00211430160D4E903010143206864
:10068000826848F2FF339A4311438160D4E905013F
:1006900008432168CA6822F0FF021043C86001E0E5
:1006A0000EE016E02068016841F001010160256458
:1006B000202084F83D00256384F83E50002070BD62
:1006C00001EB4106431EB3FBF6F35B1CB3E70120CD
:1006D000C2E701EB4101401EB0FBF1F0401CC0F34A
:1006E0000B00B7E7A086010080841E0000093D00D2
:1006F00040420F0010B586B0002100910191029197
:10070000039100681349884222D1134CA06940F03C
:100710000800A061A069694600F0080004904FF449
:100720004070009012200190032003900B48FFF7C7
:1007300021FE0B48416841F0E06141F00201416057
:10074000E06940F40010E061E06900F400100490FA
:1007500006B010BD0054004000100240000C0140E3
:1007600000000140024881680278114481607047AE
:1007700000000020074810B5016841F01001016039
:10078000032000F0A1F80F2000F006F800F04AF86E
:10079000002010BD0020024030B505461C4887B03F
:1007A000816941F400618161806906A900F40060FB
:1007B000009001A800F030F900F05EF91549164AE2
:1007C000B0FBF1F11548491E0260416040F2E7328A
:1007D0000021C0E903218160816100F0DBFB04009E
:1007E00012D10E4800F016FC04000DD1192000F0C3
:1007F0003DF8102D07D200222946192000F044F8B8
:100800000748056000E0012407B0204630BD000025
:100810000010024040420F00002C01404001002027
:10082000040000200F4808B5816941F00101816191
:10083000816901F001010091C16941F08051C161FC
:10084000C069002200F0805000900F21901E00F03F
:100850001BF80548416821F0E06141F000714160FA
:1008600008BD00000010024000000140002809DB24
:1008700000F01F02012191404009800000F1E020BA
:10088000C0F8001170470000F0B40E4B1B680C4616
:10089000C3F30223C3F10705042D00D90425191D54
:1008A000072901D2002300E0DB1E012606FA05F12C
:1008B000491E214099409E40761E16403143F0BCAF
:1008C00001F012B80CED00E0064900F007020868DC
:1008D0004FF6FF03184040EA0220034A1043086025
:1008E000704700000CED00E00000FA052DE9F0472C
:1008F0000F46050061D0434E306800F00700B84253
:1009000009D2306820F0070038433060306800F0CA
:100910000700B84251D128683B4C810712D54007E7
:1009200003D5606840F4E06060602878000703D574
:10093000606840F4605060606068A96820F0F00072
:10094000084360602878C00728D06868012810D064
:100950002168022810D0890700292EDA616821F069
:10096000030101436160FFF7FBFD804641F28839D6
:100970000DE021688903EFE78901EDE7FFF7F0FD5E
:10098000A0EB0801494502D90320BDE8F087606863
:10099000696800F00C00B0EB810FEFD1306800F017
:1009A0000700B8420BD9306820F0070038433060A8
:1009B000306800F00700B84201D00120E5E7287850
:1009C000400705D56068E96820F4E060084360608E
:1009D0002878000706D56068296920F4605040EA4D
:1009E000C100606000F058F86168084AC1F3031163
:1009F000515CC8400649086006480068FFF7CCFE15
:100A00000020C2E70020024000100240D61A000871
:100A10000C000020040000200F2202600C4A5368E2
:100A200003F003034360536803F0F00383605368EB
:100A300003F4E063C36052684FF4E06303EAD20258
:100A400002610448006800F0070008607047000079
:100A5000001002400020024004480549006849682F
:100A6000044AC1F30221515CC84070470C000020C9
:100A700000100240E61A0008044805490068496869
:100A8000044AC1F3C221515CC84070470C000020E9
:100A900000100240E61A00080E4A51680E4801F0A4
:100AA0000C03042B11D0082B0FD10C48C1F3834346
:100AB000C903C05C0AD55168084AC1F34041921E7F
:100AC000515C054A5043B0FBF1F07047044948437C
:100AD000704700000010024000127A00C61A000899
:100AE00000093D002DE9F84F040070D02078C04D7A
:100AF000C00749D06868C0F38100012807D0686842
:100B0000C0F38100022809D16868C00306D52868AF
:100B1000800339D560680028E7D035E06068B0F51B
:100B2000803F0BD010B1B0F5A02F11D0286820F471
:100B300080302860286820F4802002E0286840F493
:100B400080302860606890B1FFF70AFD06460AE031
:100B5000286840F480202860F0E700BFFFF700FD20
:100B6000801B642873D828688003F7D50CE0FFF752
:100B7000F7FC064605E000BFFFF7F2FC801B642887
:100B8000F0D828688003F7D420789A4E80074FF079
:100B900001094FF0000839D5686810F00C0F07D034
:100BA0006868C0F38100022809D16868C00306D4D0
:100BB0002868800714D52069012808D110E0206931
:100BC000B0B1C6F80090FFF7CBFC074605E00AE19C
:100BD000FFF7C6FCC01B0228C4D828688007F7D5D9
:100BE0002868616920F0F80040EAC10028600DE043
:100BF000C6F80080FFF7B4FC074604E0FFF7B0FC3E
:100C0000C01B022823D828688007F7D42078000763
:100C10002CD57948A169D9B1C0F80090FFF7A0FCA4
:100C2000074604E0FFF79CFCC01B02280FD8686A47
:100C30008007F7D571484FF4FA510068B0FBF1F026
:100C4000009000BF0098411E0091FAD20EE080E0B3
:100C5000C0F80080FFF784FC074604E0FFF780FC43
:100C6000C01B022875D8686A8007F7D4207840072F
:100C700060D5E8690027C00008D4E86940F08050DA
:100C8000E861E869012700F0805000905C48016845
:100C9000C90513D40168834641F480710160FFF7F0
:100CA0005FFC824606E000BFFFF75AFCA0EB0A009B
:100CB00064284ED8DBF80000C005F5D5E0680128AF
:100CC0000AD008B1052813D0286A20F00100286254
:100CD000286A20F0040002E0286A40F0010028623F
:100CE000E06841F2883B98B1FFF73AFC82460BE09E
:100CF000286A40F004002862EEE700BFFFF730FCEE
:100D0000A0EB0A0159455AD8286A8007F6D50CE0AD
:100D1000FFF726FC824605E0FFF722FCA0EB0A0164
:100D200059454CD8286A8007F6D41FB1E86920F0ED
:100D30008050E861E06988B36968C1F381010229E4
:100D400044D00228C6F8608004D0FFF709FC0446AE
:100D500038E034E0FFF704FC074604E0FFF700FC4E
:100D6000C01B02282BD828688001F7D4206AB0F570
:100D7000803F05D16868A16820F4003008436860AE
:100D8000D4E908010843696821F4741108436860D4
:100D9000C6F86090FFF7E4FB044606E025E000BFDC
:100DA000FFF7DEFB001B022809D828688001F7D571
:100DB0001BE000BFFFF7D4FB001B022802D9032071
:100DC000BDE8F88F28688001F4D40EE00128F7D040
:100DD0006868226A00F48031914204D1616A00F4AB
:100DE0007010884201D00120EAE70020E8E7000007
:100DF0000010024000004242800442420C000020E9
:100E00000070004070B5040009D0606A002540B150
:100E100025616561A56294F8510040B10CE00120A4
:100E200070BD6068B0F5827FF4D0E561F2E784F8C8
:100E30005050204600F040F8022084F8510020680D
:100E4000016821F040010160A088218900F48270CE
:100E500001F404410843A18901F400610843217CA5
:100E600001F002010843217D01F001010843218BBB
:100E700001F400710843217F01F03801084394F820
:100E8000201001F080010843218D01F40051084336
:100E900021680860A069042101EA104021684860C7
:100EA0002068C16921F40061C1616565012084F891
:100EB0005100002070BD000030B585B000240094C2
:100EC00001940294039400681449884223D1144881
:100ED000816941F480518161816901F480510491FB
:100EE000816941F00401816180690E4D00F00400C8
:100EF0000490A020009002200190032003906946F6
:100F00002846FFF737FA4020CDE900046946284615
:100F10000294FFF72FFA05B030BD00000030014009
:100F200000100240000801407047704770B590F80B
:100F30003C20012A26D0012480F83C40022280F87F
:100F40003D2003685A689D6822F070060A683243A3
:100F50005A600D4B02689A4208D0B2F1804F05D01A
:100F60000A4B9A4202D00A4B9A4204D1496825F0B2
:100F700080031943916080F83D40002180F83C10C7
:100F8000084670BD022070BD002C014000040040E6
:100F90000008004010B5040003D094F83D0010B1E3
:100FA00007E0012010BD002084F83C00204600F03E
:100FB0001FF8022084F83D00211D206800F086FB08
:100FC000012084F8460084F83E0084F83F0084F84D
:100FD000400084F8410084F8420084F8430084F81B
:100FE000440084F8450084F83D00002010BD000056
:100FF00008B50068B0F1804F08D10548C16941F0DB
:101000000101C161C06900F00100009008BD00004D
:101010000010024090F83D10012901D001207047D6
:10102000022180F83D100168CA6842F00102CA60DE
:1010300000680B49884208D0B0F1804F05D00949BB
:10104000884202D00849884204D1816801F0070132
:10105000062903D0016841F00101016000207047BA
:10106000002C0140000400400008004070B5044618
:1010700090F83C000025012817D0012684F83C6038
:10108000022084F83D002068826822F0770222F472
:101090007F4282600868502838D00DDC20284FD06D
:1010A00005DC90B3102811D14AE0022070BD302831
:1010B00046D040280AD13BE060282FD070280DD0C0
:1010C000B0F5805F03D0B0F5005F12D0012584F841
:1010D0003D60002084F83C00284670BDCB68D1E913
:1010E0000121206800F028FB2068816841F0770129
:1010F00009E0CB68D1E90121206800F01DFB2068E0
:10110000816841F480418160E1E719E0CA6849687B
:10111000206800F0C5FB5021206806E0CA684968D5
:10112000206800F0CEFB6021206800F00FFBCEE7C6
:10113000CA684968206800F0B3FB40212068F4E7E2
:10114000226801461046F0E7704770B50446006813
:1011500001694FF00005C943890715D4C168C94327
:10116000890711D4E91E0161012020772068806978
:101170008007204602D0FFF7E7FF04E000F0BCF84C
:10118000204600F04EF9257720680169C9434907D8
:1011900017D4C168C943490713D46FF00401016132
:1011A000022020772068806910F4407F204602D01A
:1011B000FFF7CAFF04E000F09FF8204600F031F985
:1011C000257720680169C943090716D4C168C94356
:1011D000090712D46FF0080101610420207720680C
:1011E000C0698007204602D0FFF7AEFF04E000F0A0
:1011F00083F8204600F015F9257720680169C94376
:10120000C90617D4C168C943C90613D46FF01001C9
:101210000161082020772068C06910F4407F2046D3
:1012200002D0FFF791FF04E000F066F8204600F0DE
:10123000F8F8257720680169C943C90708D1C16852
:10124000C943C90704D1891E0161204600F0EAF8AC
:1012500020680169C943090609D4C168C943090660
:1012600005D46FF0800101612046FFF75DFE206824
:101270000169C943490609D4C168C943490605D46F
:101280006FF040010161204600F0D6F82068016946
:10129000C94389060BD4C168C943890607D46FF0D6
:1012A000200101612046BDE87040FFF73EBE70BDE1
:1012B00000B585B000210091019102910391006871
:1012C000B0F1804F11D10A48816941F00401816178
:1012D0008069694600F00400049003200090022019
:1012E000019003900348FFF745F805B000BD0000EA
:1012F0000010024000080140704770B5044690F8A5
:101300003C0000260D4601280FD0012084F83C0047
:101310006AB1042A1DD0082A2FD00C2A3FD00126FA
:10132000002084F83C00304670BD022070BD20686B
:1013300000F014FA2068816941F008018161206899
:10134000816921F004018161206881692A69114362
:1013500011E0206800F02AFA2068816941F40061F8
:1013600081612068816921F48061816120688169DF
:101370002A6941EA02218161D2E7206800F042FA3D
:101380002068C16941F00801C1612068C16921F08C
:101390000401C1612068C1692A69114311E0206814
:1013A00000F05CFA2068C16941F40061C161206805
:1013B000C16921F48061C1612068C1692A6941EA7B
:1013C0000221C161ACE710B5040003D094F83D00E0
:1013D00010B107E0012010BD002084F83C00204639
:1013E00000F01EF8022084F83D00211D206800F066
:1013F0006DF9012084F8460084F83E0084F83F002F
:1014000084F8400084F8410084F8420084F84300E6
:1014100084F8440084F8450084F83D00002010BDA5
:101420007047704700680349884201D1FFF79AB9B5
:1014300070470000002C01407047FEE72DE9F041A5
:1014400086B000242B48009401940294039481698F
:1014500041F010018161816901F0100104918169FD
:1014600041F020018161816901F0200104918169CD
:1014700041F004018161816901F0040104918169F5
:1014800041F0080181618069DFF86C8000F008009C
:1014900049F204050490012229464046FFF75AF814
:1014A000164F002203213846FFF754F80122082185
:1014B0003846FFF74FF80095032601250396CDE93E
:1014C000015469464046FEF755FF0B20CDE9000563
:1014D000CDE9024669463846FEF74CFF4FF470608E
:1014E0008DE8310069464046FEF744FF06B0BDE88E
:1014F000F08100000010024000080140000C014093
:101500000D4810B50B4901600C49416000214FF4B2
:1015100080428160C0E9031241618161C161016261
:10152000FFF724F8002803D0BDE81040FEF70DBFF8
:1015300010BD0000005400404C000020A0860100B7
:10154000104810B50E4901604FF4827141600021CE
:101550008160C1604FF400720161C0E90512082288
:10156000C0E90721416281620A21C162FFF74AFC9A
:10157000002803D0BDE81040FEF7E7BE10BD000014
:1015800000300140A000002010B58EB00024079468
:10159000089409940A940B941C2168460C94FEF755
:1015A0005FFE22484FF08041016041F61F41C0E9D3
:1015B00001146321C0E903148461FFF7EBFC08B157
:1015C000FEF7C3FE4FF48050079007A91748FFF7B6
:1015D0004DFD08B1FEF7B9FE1448FFF7F4FE08B15F
:1015E000FEF7B3FE0B940BA910480C94FFF79EFC7A
:1015F00008B1FEF7AAFE6020CDE9000402940022A3
:1016000069460A480494FFF778FE08B1FEF79DFE8C
:10161000042269460548FFF770FE08B1FEF795FE03
:101620000248FFF745FE0EB010BD0000F800002094
:10163000FEE7FEE710B5502080F31188BFF34F8F0F
:10164000BFF36F8F00F0DAF918B104494FF0805002
:101650000860002080F3118810BD000004ED00E058
:1016600030B58FB028216846FEF7FAFD14210AA88C
:10167000FEF7F6FD01210804CDE9001000240294D4
:1016800002250491CDE907504FF4E0100990684617
:10169000FFF728FA08B172B6FEE70F20CDE90A0578
:1016A0004FF48060CDE90C4002210AA80E94FFF7A8
:1016B0001DF9002801D072B6FEE70FB030BD7047AB
:1016C0000148FFF742BD000040010020F0B502686C
:1016D000164B174C174D4FF08047984205D0B84233
:1016E00003D0A04201D0A84203D122F070064A687C
:1016F0003243984205D0B84203D0A04201D0A8425C
:1017000003D122F44074CA6822434C6922F080025B
:10171000224302608A68C2620A688262984201D1EA
:101720000969016301214161F0BD0000002C014005
:10173000000400400008004010B5846842EA03221B
:1017400024F47F440A432243826010BD826822F061
:1017500070020A4342F007018160704730B5036AA6
:10176000026A22F0010202624268846924F0730571
:101770000C682C4323F002058B682B430A4DA842CA
:101780000BD123F00805CB6822F440722B434D693E
:1017900023F0040315438A692A434260846149683F
:1017A0004163036230BD0000002C014030B5026A85
:1017B000036A23F010030362436884690D6824F40C
:1017C000E64444EA05248D6822F0200242EA05122C
:1017D0000B4DA8420ED1CD6822F0800242EA0512DC
:1017E0004D6923F4406343EA85038D6922F040028A
:1017F00043EA85034360846149688163026230BDC6
:10180000002C014030B5036A026A22F48072026241
:101810004268C46923F4007324F073050C682C43F8
:101820008D6843EA05230C4DA8420ED1CD6823F400
:10183000006343EA05234D6922F4405242EA05124F
:101840008D6923F4806342EA05124260C4614968ED
:10185000C163036230BD0000002C014030B5046A52
:10186000026A22F4805202624268C3690D6823F45E
:10187000E64343EA05238D6824F4005444EA053422
:10188000064DA84204D14D6922F4804242EA8512F5
:101890004260C36149680164046230BD002C0140AC
:1018A00010B5036A046A24F001040462846924F018
:1018B000F00444EA021423F00A020A43846102623B
:1018C00010BD10B5036A046A24F010040462846930
:1018D00023F0A00324F4704444EA023243EA0111E5
:1018E0008261016210BDFEE70907090E002804DBD2
:1018F00000F1E02080F80014704700F00F0000F1C4
:10190000E02080F8141D7047FEF734FFFFF7A8FEB3
:10191000FFF794FDFFF7F4FDFFF712FEFFF734FE2B
:10192000FEF70AFD4FF47A74FEF706FD2046FEF737
:101930000FFDFEF7F9FC2046FEF70AFDF4E7000074
:1019400006484168096829B14168C968C968496899
:10195000016370474FF0FF31FAE7000010000020EC
:10196000D0E9013201699A60D0E901235A604A68DE
:10197000824201D182684A60002202610868401EEA
:1019800008600868704742684A6093688B60936893
:101990005960916008610168491C0160704700004E
:1019A0001448816B11B101214162704700214162ED
:1019B0008169B1FA81F1C1F11F0101EB81020E4988
:1019C00051F822306BB101EB820101F108034A6842
:1019D00052684A609A4201D152684A60D1680160F7
:1019E0007047502080F31188BFF34F8FBFF36F8F84
:1019F000FEE7000010000020880100202DE9F041E2
:101A00002E4C0027A06B40B1206A401C2062606A07
:101A100000B101273846BDE8F0816669761C666131
:101A200013D16068006838B1502080F31188BFF38B
:101A30004F8FBFF36F8FFEE76068A1686160A060A1
:101A4000A06A401CA062FFF77BFF206BDFF870806C
:101A5000864209D36068006880B16068C068C56864
:101A6000686886420DD220632068C06A00EB80015E
:101A700058F821000128CAD90127C8E74FF0FF30E4
:101A8000F1E7281DFFF76CFFA86A18B105F11800EF
:101A9000FFF766FFE86A0121A26981401143A16155
:101AA00000EB800108EB8100291DFFF76CFFE86A5D
:101AB0002168C96A8842CDD30127CBE710000020F6
:101AC00088010020010202030405060708090A0B29
:101AD0000C0D0E0F101000000000000000000102AD
:101AE00003040607080900000000010203040000C7
:101AF000101B0008000000204C0000002801000816
:101B00005C1B00084C0000208C0800004401000809
:101B10000100000010000000000000000024F4009C
:101B200000000000000000000000000000000000B5
:101B300000000000000000000000000000000000A5
:101B40000000000000000000000000000000000095
:0C1B500000000000000000000000000089
:04000005080000ED02
:00000001FF
