:020000040800F2
:10000000E0080020210200082B1E00083717000816
:10001000291E000827030008D7250008000000005B
:10002000000000000000000000000000890100083E
:100030002903000800000000CD0100082523000866
:100040003B0200083B0200083B0200083B0200089C
:100050003B0200083B0200083B0200083B0200088C
:100060003B0200083B0200083B0200083B0200087C
:100070003B0200083B0200083B0200083B0200086C
:100080003B0200083B0200083B0200083B0200085C
:100090003B0200083B0200083B0200083B0200084C
:1000A0003B020008B12300083B0200083B020008A5
:1000B0003B0200083B0200083B0200083B0200082C
:1000C0003B0200083B0200083B0200083B0200081C
:1000D0003B0200083B0200083B0200083B0200080C
:1000E0003B0200083B0200083B02000800F002F857
:1000F00000F03AF80AA090E8000C82448344AAF188
:100100000107DA4501D100F02FF8AFF2090EBAE885
:100110000F0013F0010F18BFFB1A43F0010318473B
:10012000042D0000242D0000103A24BF78C878C1A7
:10013000FAD8520724BF30C830C144BF04680C60ED
:10014000704700000023002400250026103A28BF35
:1001500078C1FBD8520728BF30C148BF0B60704739
:100160001FB51FBD10B510BD00F0A4F81146FFF774
:10017000F7FF02F041FA00F0C2F803B4FFF7F2FF14
:1001800003BC00F0C9F80000224B19680868B0E809
:10019000F00F80F30988BFF36F8F4FF0000080F3FA
:1001A00011884EF00D0E70470000000006480068F0
:1001B000006880F3088862B661B6BFF34F8FBFF363
:1001C0006F8F00DF00BF00BF08ED00E0EFF3098094
:1001D000BFF36F8F0F4B1A6820E9F00F106008B55E
:1001E0004FF0500080F31188BFF34F8FBFF36F8F34
:1001F00002F078FA4FF0000080F31188BDE8084063
:1002000019680868B0E8F00F80F30988BFF36F8FB2
:10021000704700BF14000020EFF305807047000016
:100220000948804709480047FEE7FEE7FEE7FEE78A
:10023000FEE7FEE7FEE7FEE7FEE7FEE704480549C6
:10024000054A064B70470000AF230008ED00000888
:10025000E0020020E0080020E0040020E00400208C
:100260004FF0000200B5134694469646203922BF4F
:10027000A0E80C50A0E80C50B1F12001BFF4F7AF9A
:10028000090728BFA0E80C5048BF0CC05DF804EB7C
:10029000890028BF40F8042B08BF704748BF20F8EA
:1002A000022B11F0804F18BF00F8012B70477047E8
:1002B00070477047754600F02BF8AE46050069465A
:1002C000534620F00700854618B020B5FFF7B6FF6B
:1002D000BDE820404FF000064FF000074FF0000847
:1002E0004FF0000B21F00701AC46ACE8C009ACE8C8
:1002F000C009ACE8C009ACE8C0098D46704710B52C
:100300000446AFF300802046BDE81040FFF735BF3C
:10031000004870477C02002001491820ABBEFEE770
:10032000260002007047FEE7704772B6FEE7000045
:1003300070B5044600F004F90546601C02D004487C
:100340000078044400F0FCF8401BA042FAD370BDD2
:10035000000000202DE9F84FDFF8B8910024A9F142
:10036000040B23460F2709F1040AABF1040EC9E080
:100370000125A5402A40AA427DD1674ED1F804C08C
:10038000ACEB0608B44532D014DCBCF1030F3AD014
:1003900009DCBCF1000F2AD0BCF1010F1CD0BCF16C
:1003A000020F31D11DE0BCF1110F17D0BCF1120FBB
:1003B0002AD119E0B8F5881F19D006DCB8F5803FBE
:1003C00015D0B8F5801F1FD111E0B8F5001F0ED071
:1003D000B8F5041F18D10AE0CB6815E0CB681B1DE7
:1003E00012E0CB6808330FE0CB680C330CE08B686D
:1003F0002BB1012B4FF0080303D0456104E0042327
:1004000002E0056100E00023FF2A01D8064601E072
:1004100000F104064FEA840501D9A5F12005D6F8BC
:10042000008007FA05FC28EA0C0803FA05F548EAFB
:100430000508C6F800804D68ED0062D5374DAE69FD
:1004400046F00106AE61AD6924F0030605F0010532
:100450000095334D06EB050CDCF80850A607360F67
:1004600007FA06F825EA0805DFF8B880404503D109
:100470004FF0000817E044E0DFF8AC80404502D1BF
:100480004FF001080FE0DFF8A480404502D14FF0A3
:10049000020808E0DFF89880404502D14FF00308D9
:1004A00001E04FF0040808FA06F848EA0508CCF81D
:1004B00008804D68D9F80060ED024D4601D516431D
:1004C00000E096432E604D68DAF80060AD025546B4
:1004D00001D5164300E096432E604D68DBF80060BE
:1004E000AD035D4601D5164300E096432E604D688E
:1004F000DEF80060ED03754601D5164300E0964333
:100500002E60641C0D682A46E5407FF431AFBDE8DB
:10051000F88F000008040140000011100010024094
:100520000000014000080140000C014000100140A3
:10053000001401400AB1016170470904FBE70000A3
:1005400001488068704700000000002070B504007A
:1005500025D094F83D00002520B984F83C50204671
:1005600000F04EF9242084F83D002068016821F055
:10057000010101602068016841F4004101602068C8
:10058000016821F40041016000F0ECFA4D4A616815
:10059000914201D84C4900E04C49884201D20120E7
:1005A00070BD4B492368B0FBF1F15E6826F03F0651
:1005B0000E435E606368934206D94FF496735943C5
:1005C0004FF47A73B1FBF3F12368491C1E6A26F0DD
:1005D0003F06314319626168914210D84900401EBC
:1005E000B0FBF1F2521CC2F30B02042A01D2042028
:1005F00022E0B0FBF1F0401CC0F30B001CE0A2684D
:10060000F2B301EBC10303EB0116431EB3FBF6F398
:100610005B1C43F480431B0549D092B301EBC1023C
:1006200002EB0111401EB0FBF1F0401CC0F30B00C7
:1006300040F4804040F400402168CA694CF6FF73E2
:100640009A431043C861D4E9071001432068026847
:1006500022F0C00211430160D4E903010143206884
:10066000826848F2FF339A4311438160D4E905015F
:1006700008432168CA6822F0FF021043C86001E005
:100680000EE016E02068016841F001010160256478
:10069000202084F83D00256384F83E50002070BD82
:1006A00001EB4106431EB3FBF6F35B1CB3E70120ED
:1006B000C2E701EB4101401EB0FBF1F0401CC0F36A
:1006C0000B00B7E7A086010080841E0000093D00F2
:1006D00040420F002DE9F84F1F4690468A460446D7
:1006E000DDF82890FFF72CFF054694F83D00202800
:1006F0007FD11923012240492046009501F0AEF830
:10070000002876D194F83C00012872D0012084F8AA
:100710003C0020680168C90703D1016841F001016C
:1007200001602068016821F400610160212084F8E3
:100730003D00102084F83E0000262664C4F8248082
:100740006785608D20852D48E0622B464A465146DC
:10075000204601F009F890B920684169806900904D
:1007600036E02A464946204601F01EF950B1206C79
:10077000042804D12068016841F40071016001205F
:10078000BDE8F88F606A216800780861606A401CE3
:100790006062618D491E6185218D491E89B2218566
:1007A00022685369DB435B070BD451B100781061B9
:1007B000606A401C6062608D401E6085208D401E16
:1007C00020852A464946204601F01CF80028CED153
:1007D000208D0028C5D154F83D0B016841F400710B
:1007E0000160202004F81E09E67766770020C7E73D
:1007F000FFE70220C4E70000020010000000FFFF36
:1008000010B586B00021009101910291039100681A
:100810001349884222D1134CA06940F00800A0611E
:10082000A069694600F0080004904FF44070009001
:1008300012200190032003900B48FFF78BFD0B481B
:10084000416841F0E06141F002014160E06940F43B
:100850000010E061E06900F40010049006B010BDE3
:100860000054004000100240000C01400000014014
:1008700002488168027811448160704700000020BE
:10088000074810B5016841F010010160032000F035
:10089000A1F80F2000F006F800F04AF8002010BD83
:1008A0000020024030B505461C4887B0816941F4FC
:1008B00000618161806906A900F40060009001A8D0
:1008C00000F030F900F05EF91549164AB0FBF1F17D
:1008D0001548491E0260416040F2E7320021C0E93C
:1008E00003218160816100F0D3FC040012D10E4825
:1008F00000F00EFD04000DD1192000F03DF8102D80
:1009000007D200222946192000F044F80748056064
:1009100000E0012407B0204630BD00000010024076
:1009200040420F00002C0140440100200400002040
:100930000F4808B5816941F001018161816901F0C9
:1009400001010091C16941F08051C161C06900227B
:1009500000F0805000900F21901E00F01BF8054819
:10096000416821F0E06141F00071416008BD000084
:100970000010024000000140002809DB00F01F02C7
:10098000012191404009800000F1E020C0F80011F1
:1009900070470000F0B40E4B1B680C46C3F30223F3
:1009A000C3F10705042D00D90425191D072901D21B
:1009B000002300E0DB1E012606FA05F1491E214056
:1009C00099409E40761E16403143F0BC01F004BEB3
:1009D0000CED00E0064900F0070208684FF6FF033F
:1009E000184040EA0220034A1043086070470000A4
:1009F0000CED00E00000FA052DE9F0470F46050078
:100A000061D0434E306800F00700B84209D2306828
:100A100020F0070038433060306800F00700B8422B
:100A200051D128683B4C810712D5400703D5606837
:100A300040F4E06060602878000703D5606840F407
:100A4000605060606068A96820F0F0000843606052
:100A50002878C00728D06868012810D021680228AB
:100A600010D0890700292EDA616821F003010143C3
:100A70006160FFF765FD804641F288390DE021682D
:100A80008903EFE78901EDE7FFF75AFDA0EB0801C5
:100A9000494502D90320BDE8F0876068696800F025
:100AA0000C00B0EB810FEFD1306800F00700B842C6
:100AB0000BD9306820F0070038433060306800F010
:100AC0000700B84201D00120E5E72878400705D5A6
:100AD0006068E96820F4E0600843606028780007F7
:100AE00006D56068296920F4605040EAC100606062
:100AF00000F058F86168084AC1F30311515CC8401E
:100B00000649086006480068FFF7CCFE0020C2E7EF
:100B100000200240001002401A2800080C000020AB
:100B2000040000200F2202600C4A536803F0030304
:100B30004360536803F0F0038360536803F4E06399
:100B4000C36052684FF4E06303EAD20202610448D2
:100B5000006800F0070008607047000000100240C5
:100B6000002002400448054900684968044AC1F36E
:100B70000221515CC84070470C0000200010024068
:100B80002A2800080448054900684968044AC1F356
:100B9000C221515CC84070470C0000200010024088
:100BA0002A2800080E4A51680E4801F00C03042B55
:100BB00011D0082B0FD10C48C1F38343C903C05C8B
:100BC0000AD55168084AC1F34041921E515C054A5A
:100BD0005043B0FBF1F070470449484370470000B0
:100BE0000010024000127A000A28000800093D00A7
:100BF0002DE9F84F040070D02078C04DC00749D0CF
:100C00006868C0F38100012807D06868C0F38100DC
:100C1000022809D16868C00306D52868800339D541
:100C200060680028E7D035E06068B0F5803F0BD001
:100C300010B1B0F5A02F11D0286820F480302860C2
:100C4000286820F4802002E0286840F48030286082
:100C5000606890B1FFF774FC06460AE0286840F42B
:100C600080202860F0E700BFFFF76AFC801B642843
:100C700073D828688003F7D50CE0FFF761FC0646BF
:100C800005E000BFFFF75CFC801B6428F0D82868F3
:100C90008003F7D420789A4E80074FF001094FF077
:100CA000000839D5686810F00C0F07D06868C0F3E9
:100CB0008100022809D16868C00306D4286880072B
:100CC00014D52069012808D110E02069B0B1C6F818
:100CD0000090FFF735FC074605E00AE1FFF730FC1E
:100CE000C01B0228C4D828688007F7D52868616926
:100CF00020F0F80040EAC10028600DE0C6F800804E
:100D0000FFF71EFC074604E0FFF71AFCC01B022891
:100D100023D828688007F7D4207800072CD5794895
:100D2000A169D9B1C0F80090FFF70AFC074604E0BA
:100D3000FFF706FCC01B02280FD8686A8007F7D5AA
:100D400071484FF4FA510068B0FBF1F0009000BF19
:100D50000098411E0091FAD20EE080E0C0F80080B9
:100D6000FFF7EEFB074604E0FFF7EAFBC01B022893
:100D700075D8686A8007F7D42078400760D5E8699D
:100D80000027C00008D4E86940F08050E861E869B5
:100D9000012700F0805000905C480168C90513D419
:100DA0000168834641F480710160FFF7C9FB824608
:100DB00006E000BFFFF7C4FBA0EB0A0064284ED892
:100DC000DBF80000C005F5D5E06801280AD008B1BD
:100DD000052813D0286A20F001002862286A20F034
:100DE000040002E0286A40F001002862E06841F255
:100DF000883B98B1FFF7A4FB82460BE0286A40F0DD
:100E000004002862EEE700BFFFF79AFBA0EB0A019F
:100E100059455AD8286A8007F6D50CE0FFF790FBB1
:100E2000824605E0FFF78CFBA0EB0A0159454CD840
:100E3000286A8007F6D41FB1E86920F08050E86185
:100E4000E06988B36968C1F38101022944D00228AE
:100E5000C6F8608004D0FFF773FB044638E034E046
:100E6000FFF76EFB074604E0FFF76AFBC01B022892
:100E70002BD828688001F7D4206AB0F5803F05D1CF
:100E80006868A16820F4003008436860D4E908016C
:100E90000843696821F4741108436860C6F86090DB
:100EA000FFF74EFB044606E025E000BFFFF748FBD6
:100EB000001B022809D828688001F7D51BE000BF75
:100EC000FFF73EFB001B022802D90320BDE8F88F84
:100ED00028688001F4D40EE00128F7D06868226AFF
:100EE00000F48031914204D1616A00F470108842AC
:100EF00001D00120EAE70020E8E7000000100240EE
:100F000000004242800442420C0000200070004079
:100F100070B5040009D0606A002540B125616561A3
:100F2000A56294F8510040B10CE0012070BD6068EA
:100F3000B0F5827FF4D0E561F2E784F850502046A6
:100F400000F040F8022084F851002068016821F088
:100F500040010160A088218900F4827001F40441FD
:100F60000843A18901F400610843217C01F00201DA
:100F70000843217D01F001010843218B01F4007138
:100F80000843217F01F03801084394F8201001F054
:100F900080010843218D01F4005108432168086055
:100FA000A069042101EA1040216848602068C169F5
:100FB00021F40061C1616565012084F851000020C1
:100FC00070BD000030B585B00024009401940294F7
:100FD000039400681449884223D11448816941F47C
:100FE00080518161816901F480510491816941F0EE
:100FF0000401816180690E4D00F004000490A0207E
:101000000090022001900320039069462846FFF7D4
:10101000A1F94020CDE90004694628460294FFF773
:1010200099F905B030BD00000030014000100240C9
:10103000000801402DE9FF4F81B0044690F85000B0
:1010400000260E9F1D4693464FF0010901280FD040
:101050004FF0010A84F850A0FFF772FA804694F826
:101060005100616801280DD0B1F5827F08D103E0FD
:10107000022005B0BDE8F08FA16809B9042801D0AD
:101080000226C9E00298002865D0BBF1000FFBD012
:10109000002DF9D094F85100042802D0052084F8DE
:1010A000510000206065C4F838B0E587A587029933
:1010B0002163E586A586206460642068016849068E
:1010C00003D4016841F040010160E068B0F5006FB1
:1010D000606803D0F0B3012D47D081E008B1012D45
:1010E0003CD1206B21680088C860206B801C206385
:1010F000E08E401EE08631E02068816889070FD5C8
:10110000E18E69B1B9F1010F0AD1216B0988C16083
:10111000206B801C2063E08E401EE0864FF00009AB
:1011200020688168C9070CD0E18F51B1C068A16BFC
:101130000880A06B801CA063E08F401EE0874FF00A
:101140000109FFF7FDF9A0EB0800B84206D3781CAF
:1011500004D001E009E05BE003265BE0E08E0028BC
:10116000CAD1E08F0028C7D140E0206B2168007809
:101170000873206B401C2063E08E401EE0862FE049
:101180002068816889070FD5E18E69B1B9F1010F37
:101190000AD1216B09780173206B401C2063E08E1B
:1011A000401EE0864FF0000920688168C9070CD016
:1011B000E18F51B1C068A16B0870A06B401CA063A7
:1011C000E08F401EE0874FF00109FFF7B9F9A0EB6F
:1011D0000800B84202D3781C02D0BAE7002FB8D07A
:1011E000E08E0028CCD1E08F0028C9D14246394694
:1011F000204601F02BF818B10126202060650BE095
:10120000A06818B92068C16880680090606D08B156
:10121000012601E084F851A0002084F850003046F7
:1012200027E770477047000070B590F83C20012A0E
:1012300026D0012480F83C40022280F83D2003683B
:101240005A689D6822F070060A6832435A600D4B56
:1012500002689A4208D0B2F1804F05D00A4B9A42F8
:1012600002D00A4B9A4204D1496825F08003194301
:10127000916080F83D40002180F83C10084670BD28
:10128000022070BD002C0140000400400008004016
:1012900010B5040003D094F83D0010B107E0012020
:1012A00010BD002084F83C00204600F01FF802200A
:1012B00084F83D00211D206801F080F8012084F8A9
:1012C000460084F83E0084F83F0084F8400084F82B
:1012D000410084F8420084F8430084F8440084F814
:1012E000450084F83D00002010BD000008B50068EE
:1012F000B0F1804F08D10548C16941F00101C161D9
:10130000C06900F00100009008BD0000001002401C
:1013100090F83D10012901D001207047022180F88A
:101320003D100168CA6842F00102CA6000680B49BA
:10133000884208D0B0F1804F05D00949884202D0D8
:101340000849884204D1816801F00701062903D0C9
:10135000016841F00101016000207047002C01404C
:10136000000400400008004070B5044690F83C00BE
:101370000025012817D0012684F83C60022084F85B
:101380003D002068826822F0770222F47F4282606A
:101390000868502838D00DDC20284FD005DC90B3E9
:1013A000102811D14AE0022070BD302846D04028D4
:1013B0000AD13BE060282FD070280DD0B0F5805FB7
:1013C00003D0B0F5005F12D0012584F83D60002005
:1013D00084F83C00284670BDCB68D1E90121206823
:1013E00001F022F82068816841F0770109E0CB68BC
:1013F000D1E90121206801F017F82068816841F4E3
:1014000080418160E1E719E0CA684968206801F01D
:10141000BFF85021206806E0CA684968206801F0DA
:10142000C8F86021206801F009F8CEE7CA68496869
:10143000206801F0ADF840212068F4E722680146F9
:101440001046F0E7704770B50446006801694FF038
:101450000005C943890715D4C168C943890711D458
:10146000E91E0161012020772068806980072046FD
:1014700002D0FFF7E7FF04E000F0BCF8204600F0E0
:101480004EF9257720680169C943490717D4C16817
:10149000C943490713D46FF004010161022020778A
:1014A0002068806910F4407F204602D0FFF7CAFF11
:1014B00004E000F09FF8204600F031F9257720681D
:1014C0000169C943090716D4C168C943090712D481
:1014D0006FF008010161042020772068C06980074F
:1014E000204602D0FFF7AEFF04E000F083F820466C
:1014F00000F015F9257720680169C943C90617D49A
:10150000C168C943C90613D46FF0100101610820F6
:1015100020772068C06910F4407F204602D0FFF792
:1015200091FF04E000F066F8204600F0F8F8257717
:1015300020680169C943C90708D1C168C943C907FF
:1015400004D1891E0161204600F0EAF82068016993
:10155000C943090609D4C168C943090605D46FF017
:10156000800101612046FFF75CFE20680169C943E4
:10157000490609D4C168C943490605D46FF0400142
:101580000161204600F0D6F820680169C943890648
:101590000BD4C168C943890607D46FF020010161EB
:1015A0002046BDE87040FFF73DBE70BD00B585B078
:1015B000002100910191029103910068B0F1804FE8
:1015C00011D10A48816941F004018161806969464D
:1015D00000F004000490032000900220019003908A
:1015E0000348FEF7B7FE05B000BD00000010024042
:1015F00000080140704770B5044690F83C00002692
:101600000D4601280FD0012084F83C006AB1042A5D
:101610001DD0082A2FD00C2A3FD00126002084F8A4
:101620003C00304670BD022070BD206800F00EFF07
:101630002068816941F0080181612068816921F099
:1016400004018161206881692A69114311E02068E1
:1016500000F024FF2068816941F400618161206805
:10166000816921F480618161206881692A6941EA88
:1016700002218161D2E7206800F03CFF2068C16947
:1016800041F00801C1612068C16921F00401C16114
:101690002068C1692A69114311E0206800F056FFF3
:1016A0002068C16941F40061C1612068C16921F409
:1016B0008061C1612068C1692A6941EA0221C16172
:1016C000ACE710B5040003D094F83D0010B107E07A
:1016D000012010BD002084F83C00204600F01EF8D8
:1016E000022084F83D00211D206800F067FE0120E3
:1016F00084F8460084F83E0084F83F0084F84000F7
:1017000084F8410084F8420084F8430084F84400DF
:1017100084F8450084F83D00002010BD70477047F4
:1017200000680349884201D1FFF7A2B87047000062
:10173000002C01407047FEE701684A69D243520518
:101740000FD46FF480624A61002140F8301F2022DC
:1017500042738173026942F0040202610173012045
:101760007047002070470000F8B50446C06A1E4666
:101770000D461746082807D0012805D010F5803FF0
:1017800002D0206B122804D12068016841F48071D6
:101790000160134600224FF001112046009600F030
:1017A0005DF840B120680068C00502D54FF40070B4
:1017B00020640320F8BD2069B0F5804F0ED00620CC
:1017C000216800EAD51040F0F000086133463A463F
:1017D0000B49204600F08AF878B902E005F0FE00D7
:1017E00000E0E8B221680861054933463A46891F9E
:1017F000204600F07BF80028DCD00120F8BD000076
:101800000800010070B516460D4604461EE020464D
:10181000FFF792FF08B1012070BD681C16D0FEF7DB
:101820008FFE801BA84200D885B920684069C0435C
:1018300040070BD5002044F8300F20216173A073BE
:10184000216941F0200121612073E4E720684069AB
:10185000C0434007DBD4002070BD00002DE9F047F5
:10186000984617460D460446C1F30746DDF820901A
:101870002AE000BFB8F1FF3F26D0FEF761FEA0EBE3
:101880000901414502D8B8F1000F1DD12068012E91
:1018900016D0806925EA00000004000C12D0002058
:1018A000B84211D1002044F8300F20216173A07399
:1018B000216941F02001216120730120BDE8F087FA
:1018C0004069E7E70120EBE72068012E0AD0806934
:1018D00025EA00000004000C06D00020B842C9D060
:1018E0000020EBE74069F3E70120F7E72DE9F04737
:1018F000984616460D4604464FF000094FF0200A60
:10190000C1F3074723E020684069C043400515D470
:101910002068016841F40071016021686FF4806003
:101920004861C4F8309084F83DA084F83E90216C62
:1019300041F00401216484F83C9021E0701C06D041
:10194000FEF7FEFDA0EB0800B04203D816B1012F50
:101950001FD021E02068012F15D0806925EA000002
:101960000004000C18D000BF44F8309F84F80DA08C
:1019700084F80E90216941F02001216184F80C90D7
:101980000120BDE8F087406925EA00000004000C52
:10199000EAD12068406901E02068806925EA0000FA
:1019A0000004000CAFD1ECE770B516460D460446B6
:1019B0001EE02046FFF7C0FE08B1012070BD681C84
:1019C00016D0FEF7BDFD801BA84200D885B920685F
:1019D0004069C04300060BD5002044F8300F202199
:1019E0006173A073216941F0200121612073E4E754
:1019F00020684069C0430006DBD4002070BD0000B1
:101A00002DE9F0410E46074615460421052000F059
:101A100029F80021012000F0F9F880210A2000F0C7
:101A2000E9F8002404E0395D092000F0EFF8641CB7
:101A3000B442F8D30321012000F0E8F8084C052057
:101A400000F0BCF8641E01D04007F8D5222000F059
:101A5000B5F82870212000F0B1F86870BDE8F08179
:101A6000A086010070B50C46054600F0A7F820EAF4
:101A700004012846BDE8704000F0C8B82DE9FF5FBA
:101A80000027FE25DDF838A016468B468146B8466D
:101A90000C2805D0B9F10E0F05D11227102001E056
:101AA00077273020804647F08001022000F0AEF812
:101AB00080210420FFF7D6FF0021012000F0A6F8C6
:101AC00080210A2000F096F8002405E01BF804109D
:101AD000092000F09BF8641CB442F7D3494601206A
:101AE00000F094F8B9F10C0F03D180210D2000F023
:101AF00081F8294E042000F061F80446761E04D0D7
:101B0000E00702D114EA080FF4D080210D20FFF77E
:101B1000A9FF36B1062000F051F810F01B0F0CD0D1
:101B2000FE2580210C2000F065F80021012000F046
:101B30006DF804B02846BDE8F09F00253C40E00762
:101B400000D0FF25B9F10C0FEBD10A2000F036F8D8
:101B500004460C2000F032F810F007004FEAC401F0
:101B600004D008390844AAF8000001E0AAF80010DF
:101B700024B1122C04D91224002603E00124FBE72F
:101B8000002605E0092000F019F803998855761C15
:101B9000A642F7D3C5E70000E093040010B5064C59
:101BA000012211462046FEF7C5FC20460122BDE871
:101BB00010400221FEF7BEBC000C014070B57E2132
:101BC00001EA40000A4D40F080040022012128462D
:101BD000FEF7B0FC204600F027FB002000F024FBBD
:101BE0000446012211462846FEF7A4FC204670BD9B
:101BF000000C014070B50C460546FFF7DFFF40EAD8
:101C000004012846BDE87040AFF3008070B50E4671
:101C10007E2101EA4004094D002201212846FEF7F9
:101C200089FC204600F000FB304600F0FDFA284613
:101C3000BDE8704001221146FEF77CBC000C01405B
:101C40002DE9F04186B000242848009401940294C4
:101C50000394816941F010018161816901F01001F3
:101C60000491816941F020018161816901F02001C5
:101C70000491816941F004018161816901F00401ED
:101C80000491816941F0080181618069DFF8608019
:101C900000F0080049F2040504900122294640465C
:101CA000FEF748FC134F01220B213846FEF742FC99
:101CB0000095032601250396CDE901546946404667
:101CC000FEF748FB0B20CDE90005CDE90246694649
:101CD0003846FEF73FFB4FF470608DE831006946EF
:101CE0004046FEF737FB06B0BDE8F0810010024029
:101CF00000080140000C01400D4810B50B4901607F
:101D00000C49416000214FF480428160C0E9031218
:101D100041618161C1610162FEF718FC002803D0B6
:101D2000BDE81040FEF701BB10BD000000540040AC
:101D300050000020A0860100104810B50E49016037
:101D40004FF48271416000218160C1604FF40072E4
:101D50000161C0E905122822C0E9072141628162C0
:101D60000A21C162FFF7D4F8002803D0BDE8104073
:101D7000FEF7DBBA10BD000000300140A4000020D7
:101D800010B58EB000240794089409940A940B941B
:101D90001C2168460C94FEF763FA22484FF08041FC
:101DA000016041F61F41C0E901146321C0E9031439
:101DB0008461FFF76DFA08B1FEF7B7FA4FF480506F
:101DC000079007A91748FFF7CFFA08B1FEF7ADFA59
:101DD0001448FFF776FC08B1FEF7A7FA0B940BA99D
:101DE00010480C94FFF720FA08B1FEF79EFA602025
:101DF000CDE900040294002269460A480494FFF7E2
:101E0000FAFB08B1FEF791FA042269460548FFF78C
:101E1000F2FB08B1FEF789FA0248FFF7C7FB0EB0E4
:101E200010BD0000FC000020FEE7FEE770B50024B6
:101E30000021204600F06AF80025002000F00CF98F
:101E40006D1CEDB2802DF8D3641CE4B2082CEFD3E6
:101E500070BD10B500204FF47A720021491C9142E8
:101E6000FCD3401C9042F8D3FFF746FFAE2000F0B1
:101E7000E1F8D52000F0DEF8802000F0DBF8A820A3
:101E800000F0D8F83F2000F0D5F8D32000F0D2F8C9
:101E9000002000F0CFF8402000F0CCF8A12000F0A6
:101EA000C9F8C82000F0C6F8DA2000F0C3F8122004
:101EB00000F0C0F8812000F0BDF8CF2000F0BAF8A3
:101EC000D92000F0B7F8F12000F0B4F8DB2000F0E2
:101ED000B1F8302000F0AEF8A42000F0ABF8A62056
:101EE00000F0A8F88D2000F0A5F8142000F0A2F86A
:101EF000AF2000F09FF8BDE81040FFF797BF024603
:101F0000012000E05043491EFCD2704710B50C463A
:101F100040F0B00000F08EF8102040EA141000F0FD
:101F200089F804F00F00BDE8104000F083B800000D
:101F30002DE9F0410746CE004000083E801E1546C0
:101F40004FF0FF38F1B2C0B2FFF7E0FF11480024B4
:101F500000EB05152819A0F5805090F8000E00F050
:101F60007BF8641CE4B2082CF4D308EB4700F1B210
:101F7000C0B2FFF7CBFF00242819A0F5805090F8DD
:101F8000080E00F069F8641CE4B2082CF4D3BDE834
:101F9000F0810000322800082DE9F0411D46174667
:101FA0000E468046002415E0291B1020491EFFF72D
:101FB000A6FFB7FBF0F000F00F0206EB0400C1B281
:101FC0000A2A404601D2303200E03732FFF7B0FF34
:101FD000641CE4B2AC42E7D3BDE8F0812DE9F047E0
:101FE0001E4614008846814604D42B22FFF7A0FF2A
:101FF000254603E02D22FFF79BFF654200240A27B8
:1020000014E0311B0A20491EFFF779FFB5FBF0F001
:10201000B0FBF7F107FB110208EB0400401CC1B252
:1020200048463032FFF784FF641CE4B2B442E8D380
:10203000BDE8F0871CB500218DF804108DF805006F
:10204000481E0090022301AA78210248FEF742FBB5
:102050001CBD0000500000201CB540218DF804106C
:102060008DF805004FF0FF300090022301AA78217F
:102070000148FEF72FFB1CBD500000200321142057
:10208000FFF7F0BC10B51420FFF798FD800705D1CD
:102090000321BDE810401420FFF7ACBD10BD70B5A2
:1020A0000646082188B000240846FFF7DBFC002123
:1020B0000D20FFF7ABFD80210E20FFF7D3FC93200E
:1020C0008DF8040020208DF8050006A801AB0090D3
:1020D000022219460C20FFF7D1FC05000DD100218A
:1020E00001A8425C7254425C491C5440C9B20429A4
:1020F000F7D3405CA04200D0FE2580210E20FFF7E0
:1021000079FD08B0284670BD00B587B050208DF825
:10211000040000208DF805000DF10602022101A83F
:10212000FFF76EFC06A801AB0090042219460C20B4
:10213000FFF7A4FC07B000BD10B5FFF72FFD00F0BE
:102140002FF8FFF79BFFBDE81040FFF79BBF30B5AE
:102150000C460546082187B00846FFF783FC072197
:102160000D20FFF753FD03211420FFF743FD06A8C0
:1021700001AB00908DF80450012219460C20FFF7A6
:102180007DFC002809D1BDF81810102905D19DF853
:10219000041021709DF80510617007B030BD00007B
:1021A00010B5204C012202212046FEF7C3F902207F
:1021B000FEF7BEF8002202212046FEF7BBF90220FE
:1021C000FEF7B6F8012202212046FEF7B3F90220FD
:1021D000FEF7AEF80F210120FFF718FD0220FEF7F1
:1021E000A7F83D211120FFF711FD1E212D20FFF73B
:1021F0000DFD00212C20FFF709FD8D212A20FFF77E
:1022000005FD3E212B20FFF701FD40211520FFF7A2
:10221000FDFCFFF733FF0220FEF78AF8BDE810400F
:10222000FFF730BF000C014001B582B00A200090DA
:102230000123044A02A90448FEF7FCFE0148007885
:102240000EBD000010000020A400002038B50B4691
:10225000009204460022802100F008F8002804D0F3
:10226000606D40F020006065032038BD2DE9F84323
:102270001E46914688460446089DFEF761F9401BBC
:10228000351AFEF75DF9074625480068C0F3CB30E4
:10229000684338E0701C37D0FEF752F9C01BA842E3
:1022A00003D215B1009860B32CE02068416821F09A
:1022B000E00141606068B0F5827F0BD1A068B0F5A5
:1022C000004F02D0B0F5806F04D12068016821F082
:1022D00040010160A06AB0F5005F09D12068016883
:1022E00021F4005101602068016841F4005101604F
:1022F000012084F85100002084F850000320BDE83C
:10230000F8830025401E00902068816838EA0100AB
:1023100004D000214945BDD10020F0E70121F9E7B3
:102320000C00002010B5502080F31188BFF34F8FB0
:10233000BFF36F8F00F004FA18B104494FF08050DA
:102340000860002080F3118810BD000004ED00E05B
:1023500030B58FB028216846FDF782FF14210AA806
:10236000FDF77EFF01210804CDE90010002402944E
:1023700002250491CDE907504FF4E010099068461A
:10238000FEF736FC08B172B6FEE70F20CDE90A056C
:102390004FF48060CDE90C4002210AA80E94FEF7AC
:1023A0002BFB002801D072B6FEE70FB030BD70479E
:1023B0000148FFF748B8000044010020F0B502686A
:1023C000164B174C174D4FF08047984205D0B84236
:1023D00003D0A04201D0A84203D122F070064A687F
:1023E0003243984205D0B84203D0A04201D0A8425F
:1023F00003D122F44074CA6822434C6922F080025F
:10240000224302608A68C2620A688262984201D1ED
:102410000969016301214161F0BD0000002C014008
:10242000000400400008004010B5846842EA03221E
:1024300024F47F440A432243826010BD826822F064
:1024400070020A4342F007018160704730B5036AA9
:10245000026A22F0010202624268846924F0730574
:102460000C682C4323F002058B682B430A4DA842CD
:102470000BD123F00805CB6822F440722B434D6941
:1024800023F0040315438A692A4342608461496842
:102490004163036230BD0000002C014030B5026A88
:1024A000036A23F010030362436884690D6824F40F
:1024B000E64444EA05248D6822F0200242EA05122F
:1024C0000B4DA8420ED1CD6822F0800242EA0512DF
:1024D0004D6923F4406343EA85038D6922F040028D
:1024E00043EA85034360846149688163026230BDC9
:1024F000002C014030B5036A026A22F48072026245
:102500004268C46923F4007324F073050C682C43FB
:102510008D6843EA05230C4DA8420ED1CD6823F403
:10252000006343EA05234D6922F4405242EA051252
:102530008D6923F4806342EA05124260C4614968F0
:10254000C163036230BD0000002C014030B5046A55
:10255000026A22F4805202624268C3690D6823F461
:10256000E64343EA05238D6824F4005444EA053425
:10257000064DA84204D14D6922F4804242EA8512F8
:102580004260C36149680164046230BD002C0140AF
:1025900010B5036A046A24F001040462846924F01B
:1025A000F00444EA021423F00A020A43846102623E
:1025B00010BD10B5036A046A24F010040462846933
:1025C00023F0A00324F4704444EA023243EA0111E8
:1025D0008261016210BDFEE70907090E002804DBD5
:1025E00000F1E02080F80014704700F00F0000F1C7
:1025F000E02080F8141D70471CB5FEF741F9FFF785
:10260000A7FEFFF71DFBFFF777FBFFF795FBFFF733
:10261000B7FBFFF791FDFFF71CFCFFF707FC01A9D3
:102620002620FFF794FD44B20423224601211846D8
:10263000FFF7D4FC0CBB6846FFF731FDE8B9012178
:102640009DF8002002230846FFF7A6FC9DF8012014
:10265000022303210120FFF79FFC9DF802200223A3
:1026600005210120FFF798FC9DF803200223072194
:102670000120FFF791FCFFF747FDC820FDF758FE4A
:10268000CDE7000006484168096829B14168C9687A
:10269000C9684968016370474FF0FF31FAE70000ED
:1026A00014000020D0E9013201699A60D0E90123C9
:1026B0005A604A68824201D182684A6000220261FF
:1026C0000868401E08600868704742684A6093685E
:1026D0008B6093685960916008610168491C0160D2
:1026E000704700001448816B11B1012141627047AD
:1026F000002141628169B1FA81F1C1F11F0101EB51
:1027000081020E4951F822306BB101EB820101F1D7
:1027100008034A6852684A609A4201D152684A6086
:10272000D16801607047502080F31188BFF34F8F4C
:10273000BFF36F8FFEE70000140000208C01002023
:102740002DE9F0412E4C0027A06B40B1206A401CBF
:102750002062606A00B101273846BDE8F0816669F1
:10276000761C666113D16068006838B1502080F330
:102770001188BFF34F8FBFF36F8FFEE76068A168CA
:102780006160A060A06A401CA062FFF77BFF206B25
:10279000DFF87080864209D36068006880B16068A5
:1027A000C068C568686886420DD220632068C06A28
:1027B00000EB800158F821000128CAD90127C8E799
:1027C0004FF0FF30F1E7281DFFF76CFFA86A18B142
:1027D00005F11800FFF766FFE86A0121A269814050
:1027E0001143A16100EB800108EB8100291DFFF777
:1027F0006CFFE86A2168C96A8842CDD30127CBE71C
:10280000140000208C0100200102020304050607C9
:1028100008090A0B0C0D0E0F10100000000000003C
:10282000000001020304060708090000000001027D
:102830000304000000000000000000000000000091
:102840000000000000F8000000000000003330002D
:10285000000000100C06100C060000000000000034
:10286000000040C07840C0784000043F04043F04AA
:102870000400007088FC08300000001820FF211EB2
:102880000000F008F000E018000000211C031E21E9
:102890001E0000F00888700000001E212324192764
:1028A000211010160E0000000000000000000000C3
:1028B0000000000000E018040200000000071820DB
:1028C000400000020418E00000000040201807004B
:1028D0000000404080F0804040000202010F0102F1
:1028E0000200000000F0000000000101011F0101D2
:1028F0000100000000000000000080B07000000037
:1029000000000000000000000000000101010101C2
:102910000101000000000000000000303000000055
:10292000000000000000806018040060180601002C
:10293000000000E010080810E000000F1020201038
:102940000F00001010F8000000000020203F2020A1
:102950000000007008080888700000302824222138
:1029600030000030088888483000001820202011EE
:102970000E000000C02010F8000000070424243FCF
:10298000240000F808888808080000192120201178
:102990000E0000E0108888180000000F11202011A0
:1029A0000E0000380808C83808000000003F00008A
:1029B00000000070880808887000001C2221212275
:1029C0001C0000E010080810E00000003122221175
:1029D0000F00000000C0C000000000000030300008
:1029E0000000000000800000000000008060000087
:1029F00000000000804020100800000102040810C0
:102A000020004040404040404000040404040404CE
:102A1000040000081020408000000020100804027C
:102A20000100007048080808F0000000003036017E
:102A30000000C030C828E810E0000718272423143D
:102A40000B000000C038E0000000203C23020227F9
:102A5000382008F8888888700000203F2020201146
:102A60000E00C03008080808380007182020201081
:102A7000080008F808080810E000203F2020201077
:102A80000F0008F88888E8081000203F2020232045
:102A9000180008F88888E8081000203F200003008C
:102AA0000000C03008080838000007182020221E47
:102AB000020008F808000008F808203F2101012161
:102AC0003F20000808F8080800000020203F2020D0
:102AD000000000000808F8080800C08080807F001F
:102AE000000008F888C028180800203F2001263878
:102AF000200008F8080000000000203F20202020CF
:102B0000300008F8F800F8F80800203F003F003FC8
:102B1000200008F830C00008F808203F20000718FF
:102B20003F00E01008080810E0000F1020202010DF
:102B30000F0008F808080808F000203F21010101F3
:102B40000000E01008080810E0000F182424385096
:102B50004F0008F8888888887000203F2000030C08
:102B60003020007088080808380000382021212211
:102B70001C00180808F8080818000000203F200072
:102B8000000008F808000008F808001F2020202096
:102B90001F000878880000C83808000007380E01B8
:102BA0000000F80800F80008F800033C0700073CA4
:102BB0000300081868808068180820302C03032C54
:102BC00030200838C800C83808000000203F200026
:102BD000000010080808C8380800203826212020E6
:102BE0001800000000FE020202000000007F4040CA
:102BF0004000000C30C0000000000000000106385A
:102C0000C00000020202FE000000004040407F00C1
:102C100000000000040202020400000000000000A6
:102C200000000000000000000000808080808080A4
:102C3000808000020204000000000000000000008C
:102C400000000000808080800000001924222222E1
:102C50003F2008F8008080000000003F1120201174
:102C60000E000000008080800000000E1120202057
:102C70001100000000808088F800000E1120201054
:102C80003F200000808080800000001F222222223E
:102C90001300008080F0888888180020203F2020C2
:102CA00000000000808080808000006B94949493EA
:102CB000600008F8008080800000203F2100002094
:102CC0003F2000809898000000000020203F202036
:102CD0000000000000809898000000C08080807F85
:102CE000000008F8000080808000203F24022D3082
:102CF0002000000808F8000000000020203F2020ED
:102D000000008080808080808000203F20003F2065
:102D1000003F8080008080800000203F2100002054
:102D20003F200000808080800000001F20202020A5
:102D30001F00808000808000000080FFA120201103
:102D40000E000000008080808000000E112020A076
:102D5000FF80808080008080800020203F21200034
:102D6000010000008080808080000033242424241F
:102D70001900008080E0808000000000001F2020FB
:102D800000008080000000808000001F20202010B4
:102D90003F20808080000080808000010E30080687
:102DA000010080800080008080800F300C030C3098
:102DB0000F0000808000808080000020312E0E31C6
:102DC0002000808080000080808080818E701806C6
:102DD000010000808080808080000021302C222132
:102DE000300000000000807C020200000000003F74
:102DF000404000000000FF00000000000000FF0055
:102E000000000002027C800000000040403F000003
:102E1000000000060101020204040000000000009E
:102E200000000000442E00080000002050000000B8
:102E300028010008942E000850000020900800008F
:102E40004401000801000000100000000000000024
:102E50000024F4000000000000000000000000005A
:102E60000000000000000000000000000000000062
:102E70000000000000000000000000000000000052
:102E80000000000000000000000000000000000042
:042E9000000000003E
:04000005080000ED02
:00000001FF
