:020000040800F2
:100000006807002089010008E9130008B5120008FC
:10001000E51300088F0200088915000800000000A1
:10002000000000000000000000000000191400089B
:100030009302000800000000ED1300081B140008E4
:10004000A3010008A3010008A3010008A301000800
:10005000A3010008A3010008A3010008A3010008F0
:10006000A3010008A3010008A3010008A3010008E0
:10007000A3010008A3010008A3010008A3010008D0
:10008000A3010008A3010008A3010008A3010008C0
:10009000A3010008A3010008A3010008A3010008B0
:1000A000A3010008A3010008A3010008A3010008A0
:1000B000A3010008A3010008A3010008A301000890
:1000C000A3010008A3010008A3010008A301000880
:1000D000A3010008A3010008A3010008A301000870
:1000E000A3010008A3010008A301000800F002F822
:1000F00000F03AF80AA090E8000C82448344AAF188
:100100000107DA4501D100F02FF8AFF2090EBAE885
:100110000F0013F0010F18BFFB1A43F0010318473B
:10012000EC1400000C150000103A24BF78C878C108
:10013000FAD8520724BF30C830C144BF04680C60ED
:10014000704700000023002400250026103A28BF35
:1001500078C1FBD8520728BF30C148BF0B60704739
:100160001FB51FBD10B510BD00F058F81146FFF7C0
:10017000F7FF01F027FA00F076F803B4FFF7F2FF7B
:1001800003BC00F07DF8000009488047094800479B
:10019000FEE7FEE7FEE7FEE7FEE7FEE7FEE7FEE737
:1001A000FEE7FEE704480549054A064B7047000094
:1001B00089140008ED00000868010020680700208D
:1001C00068030020680300204FF0000200B51346CA
:1001D00094469646203922BFA0E80C50A0E80C5067
:1001E000B1F12001BFF4F7AF090728BFA0E80C5018
:1001F00048BF0CC05DF804EB890028BF40F8042B11
:1002000008BF704748BF20F8022B11F0804F18BF7D
:1002100000F8012B7047704770477047754600F033
:100220002BF8AE4605006946534620F00700854688
:1002300018B020B5FFF7B6FFBDE820404FF000062C
:100240004FF000074FF000084FF0000B21F00701BE
:10025000AC46ACE8C009ACE8C009ACE8C009ACE801
:10026000C0098D46704710B50446AFF300802046A4
:10027000BDE81040FFF781BF00487047040100202F
:1002800001491820ABBEFEE726000200704700BF00
:10029000FEE7704772B600BFFEE700002DE9F847A1
:1002A0000346002294466EE14FF0010808FA02F47A
:1002B000D1F8008008EA0400A0427DD1DFF8DCA27A
:1002C000D1F80480A8EB0A09D0453AD014DCB8F183
:1002D000030F50D009DCB8F1000F31D0B8F1010F95
:1002E0001CD0B8F1020F49D120E0B8F1110F18D09D
:1002F000B8F1120F42D11EE0B9F5881F25D006DCF7
:10030000B9F5803F20D0B9F5801F37D11AE0B9F593
:10031000001F18D0B9F5041F30D117E0D1F80CC078
:100320002DE0D1F80C8008F1040C28E0D1F80C8005
:1003300008F1080C23E0D1F80C8008F10C0C1EE049
:1003400000BF00BF00BF00BF00BF00BFD1F80880E2
:10035000B8F1000F02D14FF0040C0BE0D1F8088087
:10036000B8F1010F03D14FF0080C1C6102E04FF00F
:10037000080C5C6103E04FF0000C00E000BF00BF20
:10038000FF2801D8984601E003F104084646FF28FB
:1003900002D84FEA820803E0A2F108084FEA880871
:1003A0004746D6F800804FF00F0909FA07F928EA06
:1003B00009080CFA07F900E088E048EA0908C6F8DD
:1003C0000080D1F8048008F08058B8F1805F7DD1BA
:1003D00000BFDFF8CC81D8F8188048F00108DFF8BA
:1003E000C091C9F81880C846D8F8188008F00108EC
:1003F000CDF8008000BF00BF4FEAB9384FEA92093C
:1004000058F829504FEA82784FEA18794FF00F08D0
:1004100008FA09F825EA0805DFF88881434502D182
:100420004FF0000816E0DFF88081434502D14FF01D
:1004300001080FE0DFF87481434502D14FF0020854
:1004400008E0DFF86C81434502D14FF0030801E07A
:100450004FF004084FEA82794FEA197908FA09F84F
:1004600048EA0505DFF84C814FEA920948F829501F
:10047000D1F8048008F48018B8F5801F0AD1DFF89D
:100480003881D8F8008048EA0008DFF82C91C9F8D4
:10049000008009E0DFF82081D8F8008028EA000811
:1004A000DFF81491C9F80080D1F8048008F400182E
:1004B000B8F5001F10D1DFF8008108F10408D8F862
:1004C000008048EA0008DFF8F09000E05AE009F107
:1004D0000409C9F800800DE0DFF8DC8008F10408A9
:1004E000D8F8008028EA0008DFF8CC9009F1040968
:1004F000C9F80080D1F8048008F40038B8F5003F4E
:100500000ED1DFF8B480A8F10408D8F8008048EADA
:100510000008DFF8A490A9F10409C9F800800DE0F3
:10052000DFF89480A8F10408D8F8008028EA0008D1
:10053000DFF88490A9F10409C9F80080D1F804809B
:1005400008F48038B8F5803F0ED1DFF86C80A8F150
:100550000808D8F8008048EA0008DFF85C90A9F1A4
:100560000809C9F800800DE0DFF84C80A8F1080800
:10057000D8F8008028EA0008DFF83C90A9F10809C3
:10058000C9F80080521CD1F8008028FA02F8B8F1AE
:10059000000F7FF489AEBDE8F8870000000011105D
:1005A0000010024000080140000C01400010014012
:1005B000001401400800014008040140014800689F
:1005C000704700000000002070B504460CB90120FF
:1005D00070BD94F83D0028B9002084F83C00204606
:1005E00000F0DAF8242084F83D002068006820F04C
:1005F0000100216808602068006840F4004021681C
:1006000008602068006820F400402168086000F05D
:100610008BFA05465C496068884206D85B4885428B
:1006200001D2012007E0002005E05948854201D2AF
:10063000012000E00020012800D1C9E75548B5FBA2
:10064000F0F62068406820F03F00304321684860A1
:100650004D496068884201D8701C07E04FF49670DD
:1006600070434FF47A71B0FBF1F0401C2168096AC5
:1006700021F03F01084321680862434960688842CD
:1006800014D8681E61684900B0FBF1F0401CC0F34B
:100690000B00042801D204203DE0681E6168490077
:1006A000B0FBF1F0401CC0F30B0034E0A06838B997
:1006B000681E616801EB4101B0FBF1F0401C0AE0EB
:1006C000681E616801EBC10202EB0111B0FBF1F0A1
:1006D000401C40F48040C0F30B0008B901201AE030
:1006E000A06848B9681E616801EB4101B0FBF1F0F8
:1006F000401CC0F30B000CE0681E616801EBC102F6
:1007000002EB0111B0FBF1F0401CC0F30B0040F410
:10071000804040F400402168C9694CF6FF72914363
:1007200008432168C861D4E90701084321680968C2
:1007300021F0C001084321680860D4E90310084390
:100740002168896848F2FF32914308432168886034
:10075000D4E9050108432168C96821F0FF01084375
:100760002168C8602068006840F0010021680860C6
:1007700000202064202084F83D000020206384F8BD
:100780003E0000BF24E70000A086010080841E0018
:1007900000093D0040420F0010B586B0044600201D
:1007A000029003900490059015492068884225D155
:1007B00000BF1448806940F008001249886108466B
:1007C000806900F00800019000BF00BFC0200290C7
:1007D000122003900320059002A90B48FFF75EFD4D
:1007E00000BF0848C06940F400100649C8610846C7
:1007F000C06900F40010019000BF00BF06B010BD3A
:100800000054004000100240000C01400348006802
:100810000349097808440149086070470000002036
:100820000800002010B50848006840F01000064994
:100830000860032000F098F80F2000F007F800F09F
:100840002BF8002010BD00000020024070B50446C7
:100850000E4800784FF47A71B1FBF0F00C4909684A
:10086000B1FBF0F5284600F08BFC08B1012070BD0B
:10087000102C07D200222146501E00F037F8054800
:10088000046001E00120F2E70020F0E7080000200A
:100890000C0000200400002008B500BF114880694A
:1008A00040F001000F4988610846806900F00100AE
:1008B000009000BF00BF00BF0846C06940F08050F4
:1008C000C8610846C06900F08050009000BF00BFBA
:1008D00000BF0549486820F0E06040F000704860C3
:1008E00000BF08BD00100240000001402DE9F05F8C
:1008F00080460D461646002700F048FE074639465A
:100900002A46334601F00700C0F1070ABAF1040F86
:1009100002D94FF0040A01E0C0F1070AD14600F104
:10092000040ABAF1070F02D24FF0000A01E0A0F169
:10093000030AD4464FF0010A0AFA09FAAAF1010A99
:100940000AEA020A0AFA0CFA4FF0010B0BFA0CFB46
:10095000ABF1010B0BEA030B4AEA0B0421464046BC
:1009600000F01CFEBDE8F09F00BF00F00702064B40
:1009700019684FF6FF031940044B0B4343EA022169
:10098000014B196000BF70470CED00E00000FA0554
:1009900070B504460D460CB9012070BD5A48006878
:1009A00000F00700A8420ED25748006820F0070068
:1009B0002843554908600846006800F00700A8422F
:1009C00001D00120E9E7207800F0020002281DD1C3
:1009D000207800F00400042805D14C48406840F419
:1009E000E0604A494860207800F00800082805D1F6
:1009F0004648406840F46050444948604348406875
:100A000020F0F000A168084340494860207800F0D9
:100A1000010078B36068012806D13C48006800F402
:100A2000003090B90120B8E76068022806D1374845
:100A3000006800F0007040B90120AEE7334800685C
:100A400000F0020008B90120A7E73048406820F014
:100A50000300616808432D494860FFF7AFFD064673
:100A600009E0FFF7ABFD801B41F28831884202D9D3
:100A7000032092E707E02548406800F00C00616819
:100A8000B0EB810FEDD12048006800F00700A842CC
:100A90000ED91D48006820F0070028431A49086055
:100AA0000846006800F00700A84201D0012074E762
:100AB000207800F00400042807D11448406820F48E
:100AC000E060E168084311494860207800F00800C0
:100AD000082808D10D48406820F46050216940EA98
:100AE000C1000A49486000F03FF808494968C1F36D
:100AF0000311074A515CC84006490860064800686F
:100B0000FFF7A4FE002048E700200240001002404A
:100B1000F21500080C0000200400002001480068C5
:100B2000704700000C00002000B5FFF7F7FF0449F4
:100B30004968C1F30221034A515CC84000BD00006E
:100B4000001002400216000800B5FFF7E7FF044955
:100B50004968C1F3C221034A515CC84000BD00008E
:100B6000001002400216000870B500210022002487
:100B700000230020134D696801F00C05F5B1042D28
:100B800002D0082D19D101E00F4819E00F4DC1F333
:100B90008346AB5D01F4803555B10A4D6D68C5F3F0
:100BA00040450B4E725D084D5D43B5FBF2F402E02B
:100BB000084D03FB05F4204602E000BF024800BFD9
:100BC00000BF70BD0010024000127A00E01500085E
:100BD000F015000800093D00F8B504460CB90120E5
:100BE000F8BD207800F00100002878D0F84840686F
:100BF00000F00C0004280CD0F548406800F00C0010
:100C0000082811D1F248406800F48030B0F5803FE8
:100C10000AD1EF48006800F4003000285FD0606817
:100C200000285CD10120DBE700BF6068B0F5803FA1
:100C300006D1E748006840F48030E549086028E0C4
:100C4000606858B9E248006820F48030E0490860E4
:100C50000846006820F4802008601AE06068B0F55B
:100C6000A02F0BD1DA48006840F48020D8490860F2
:100C70000846006840F4803008600AE0D448006804
:100C800020F48030D24908600846006820F48020B3
:100C9000086000BF606888B1FFF790FC054606E079
:100CA000FFF78CFC401B642801D9032098E7C84853
:100CB000006800F400300028F2D010E0FFF77EFC5E
:100CC000054606E0FFF77AFC401B642801D90320A3
:100CD00086E7BF48006800F400300028F2D1207891
:100CE00000F00200022857D1B948406800F00C001B
:100CF00050B1B748406800F00C00082818D1B4483B
:100D0000406800F4803098B9B148006800F00200F3
:100D100020B12069012801D0012061E7AC480068BA
:100D200020F0F800616940EAC100A949086033E099
:100D30002069E8B10120A7490860FFF73FFC05469C
:100D400006E0FFF73BFC401B022801D9032047E7E0
:100D50009F48006800F002000028F2D09C4800681C
:100D600020F0F800616940EAC1009949086013E089
:100D7000002098490860FFF721FC054606E0FFF7D0
:100D80001DFC401B022801D9032029E79048006878
:100D900000F002000028F2D1207800F008000828B6
:100DA0002DD1A069B8B101208B490860FFF706FC7E
:100DB000054606E0FFF702FC401B022801D903208C
:100DC0000EE78348406A00F002000028F2D00120BC
:100DD00000F00EFB13E000207F490860FFF7EEFBF8
:100DE000054606E0FFF7EAFB401B022801D9032075
:100DF000F6E67748406A00F002000028F2D1207839
:100E000000F00400042873D100277148C06900F085
:100E1000805070B900BF6E48C06940F080506C4986
:100E2000C8610846C06900F08050009000BF00BF54
:100E300001276A48006800F48070B0B9674800680C
:100E400040F4807065490860FFF7B8FB054606E08E
:100E5000FFF7B4FB401B642801D90320C0E65F48BC
:100E6000006800F480700028F2D000BFE06801281C
:100E700006D15748006A40F001005549086227E052
:100E8000E06858B95248006A20F0010050490862F1
:100E90000846006A20F00400086219E0E0680528AE
:100EA0000BD14B48006A40F00400494908620846EB
:100EB000006A40F0010008620AE04548006A20F03C
:100EC0000100434908620846006A20F004000862F5
:100ED00000BFE068A0B1FFF771FB054609E0FFF72E
:100EE0006DFB401B41F28831884202D9032077E62E
:100EF00022E03748006A00F002000028EFD012E03C
:100F0000FFF75CFB054608E0FFF758FB401B41F28A
:100F10008831884201D9032062E62D48006A00F03A
:100F200002000028F0D1012F05D12948C06920F026
:100F300080502749C86100BFE069C8B324484068B1
:100F400000F00C00082860D0E069022848D1002099
:100F500020490866FFF732FB054606E0FFF72EFB47
:100F6000401B022801D903203AE61948006800F026
:100F700000700028F2D1206AB0F5803F07D11448F4
:100F8000406820F40030A168084311494860D4E962
:100F9000080108430E49496821F4741108430C49BB
:100FA000486001200B490866FFF708FB054607E08B
:100FB0003DE0FFF703FB401B022801D903200FE6A9
:100FC0000348006800F000700028F2D02FE0000015
:100FD0000010024000004242800442420070004083
:100FE000002014490866FFF7E9FA054606E0FFF716
:100FF000E5FA401B022801D90320F1E50E480068FC
:1010000000F000700028F2D111E0E069012800D161
:10101000E6E50948466806F48031206A814204D139
:1010200006F47011606A814201D00120D8E50020E9
:10103000D6E50000000042420010024010B5044610
:101040000CB9012010BD606A38B96068B0F5827FC4
:1010500000D105E00021E16102E000212161616130
:101060000021A16294F8510028B9002084F85000B2
:10107000204600F043F8022084F851002068006800
:1010800020F0400021680860A08800F48270218967
:1010900001F404410843A18901F400610843217C63
:1010A00001F002010843217D01F001010843218B79
:1010B00001F400710843217F01F038010843202129
:1010C000095D01F080010843218D01F400510843BE
:1010D000216808600421A06901EA10402168486085
:1010E0002068C06920F400602168C8610020606544
:1010F000012084F851000020A4E7000010B586B05C
:10110000044600200290039004900590194920683D
:1011100088422DD100BF1848806940F4805016499C
:1011200088610846806900F48050019000BF00BFCC
:1011300000BF0846806940F0040088610846806965
:1011400000F00400019000BF00BFA0200290022028
:1011500003900320059002A90848FFF79FF840205C
:10116000029000200390049002A90448FFF796F82B
:1011700006B010BD003001400010024000080140E0
:1011800070B504462546681EB0F1807F01D301206A
:101190000FE0681E4FF0E02148610F214FF0FF3053
:1011A00000F0FCF900204FF0E02188610720086181
:1011B000002070BD10B504460CB9012010BDA06917
:1011C00000B100E000BF94F8410028B9002084F885
:1011D0004000204600F02AF8242084F841002068CE
:1011E000C06820F400502168C860204600F04EF925
:1011F0002068006920F490402168086120684069F7
:1012000020F02A00216848612068C06840F400503E
:101210002168C86000206064202084F8410084F8C0
:1012200042000020606300BFC8E7000010B586B030
:101230000446002002900390049005901A4920680B
:1012400088422ED100BF1948806940F48040174978
:1012500088610846806900F48040019000BF00BFAB
:1012600000BF0846806940F0040088610846806934
:1012700000F00400019000BF00BF4815029002205A
:1012800003900320059002A90948FFF707F84FF4DF
:101290008060029000200390049002A90448FEF7A9
:1012A000FDFF06B010BD00000038014000100240F4
:1012B0000008014000BFFEE708B500BF1A4880697A
:1012C00040F01000184988610846806900F010005D
:1012D000009000BF00BF00BF0846806940F02000BA
:1012E00088610846806900F02000009000BF00BFC0
:1012F00000BF0846806940F00400886108468069A4
:1013000000F00400009000BF00BF00BF08468069E5
:1013100040F0080088610846806900F008000090ED
:1013200000BF00BF08BD00000010024010B50B4810
:101330000B4908600B484860002109488160C16082
:101340004FF480410161002141618161C16101620D
:10135000FFF73AF908B1FEF79DFF10BD00540040B9
:1013600010000020A086010010B50E480E4908604C
:101370004FF48270486000210B488160C1600161B8
:1013800041614FF4007181610821C1610021016256
:10139000416281620A21C162FFF750FE08B1FEF787
:1013A00079FF10BD003001406400002010B50B48EB
:1013B0000B4908604FF4E130486000210848816023
:1013C000C16001610C21416100218161C161FFF7B0
:1013D000F1FE08B1FEF75EFF10BD000000380140CD
:1013E000BC00002000BFFEE700BFFEE77047000022
:1013F00008B508490968C9084FF47A72B1FBF2F1DF
:101400004143009100BF00BF00994A1E009200298D
:10141000F9D108BD0C000020704710B5FFF7F6F9B0
:1014200010BD00B58FB0282105A8FEF7CDFE142110
:101430006846FEF7C9FE01200590000406900020D2
:1014400007900120099002200C90C1030D914FF4E8
:10145000E0110E9105A8FFF7BFFB08B1FEF71AFFD8
:101460000F20009002200190002002904FF4806035
:1014700003900020049002216846FFF789FA08B122
:10148000FEF708FF0FB000BD7047000070B50446BE
:101490002168096921F44051E26811432268116111
:1014A0002269A1681143626941EA02052168C9689D
:1014B00041F20C62914329432268D1602168496955
:1014C00021F44071A2691143226851612D4A2168BB
:1014D000914202D1FFF738FB01E0FFF725FB00EB5B
:1014E000C00101EB001162689200B1FBF2F100EB68
:1014F000C00202EB001263689B00B2FBF3F26423AC
:10150000B2FBF3F202EBC20303EB0212A1EB820186
:10151000322202EB01116422B1FBF2F101F0F00181
:1015200000EBC00202EB001263689B00B2FBF3F217
:101530006423B2FBF3F201EB021200EBC00101EBFA
:10154000001163689B00B1FBF3F100EBC00303EBF8
:1015500000136668B600B3FBF6F36426B3FBF6F33C
:1015600003EBC30606EB0313A1EB8301322303EB6A
:1015700001116423B1FBF3F101F00F011144226862
:10158000916070BD0038014000BFFEE7024800686E
:10159000C0F30220704700000CED00E010B50028F9
:1015A00004DB0A07130E054A135406E00A07140E5B
:1015B000034A00F00F031B1FD45410BD00E400E0E9
:1015C00018ED00E0FFF72EF9FFF72BFFFFF774FE91
:1015D000FFF7ACFEFFF7C8FEFFF7E8FE00BFFEE72F
:1015E00002030405060708090A0B0C0D0E0F101064
:1015F00001020000000000000000010203040607D1
:101600000809000000000102030400002C16000875
:101610000000002010000000280100083C1600080F
:1016200010000020580700004401000800000000DE
:0C16300010000000010000000024F40085
:04000005080000ED02
:00000001FF
